{"contracts/GoalForge.sol":{"GoalForge":{"abi":[{"inputs":[{"internalType":"address","name":"_nftContract","type":"address"}],"stateMutability":"nonpayable","type":"constructor"},{"inputs":[{"internalType":"address","name":"spender","type":"address"},{"internalType":"uint256","name":"allowance","type":"uint256"},{"internalType":"uint256","name":"needed","type":"uint256"}],"name":"ERC20InsufficientAllowance","type":"error"},{"inputs":[{"internalType":"address","name":"sender","type":"address"},{"internalType":"uint256","name":"balance","type":"uint256"},{"internalType":"uint256","name":"needed","type":"uint256"}],"name":"ERC20InsufficientBalance","type":"error"},{"inputs":[{"internalType":"address","name":"approver","type":"address"}],"name":"ERC20InvalidApprover","type":"error"},{"inputs":[{"internalType":"address","name":"receiver","type":"address"}],"name":"ERC20InvalidReceiver","type":"error"},{"inputs":[{"internalType":"address","name":"sender","type":"address"}],"name":"ERC20InvalidSender","type":"error"},{"inputs":[{"internalType":"address","name":"spender","type":"address"}],"name":"ERC20InvalidSpender","type":"error"},{"inputs":[{"internalType":"address","name":"owner","type":"address"}],"name":"OwnableInvalidOwner","type":"error"},{"inputs":[{"internalType":"address","name":"account","type":"address"}],"name":"OwnableUnauthorizedAccount","type":"error"},{"anonymous":false,"inputs":[{"indexed":true,"internalType":"address","name":"owner","type":"address"},{"indexed":true,"internalType":"address","name":"spender","type":"address"},{"indexed":false,"internalType":"uint256","name":"value","type":"uint256"}],"name":"Approval","type":"event"},{"anonymous":false,"inputs":[{"indexed":true,"internalType":"address","name":"user","type":"address"},{"indexed":false,"internalType":"uint256","name":"goalIndex","type":"uint256"},{"indexed":false,"internalType":"uint256","name":"stakeReturned","type":"uint256"},{"indexed":false,"internalType":"uint256","name":"bonusEarned","type":"uint256"}],"name":"GoalCompleted","type":"event"},{"anonymous":false,"inputs":[{"indexed":true,"internalType":"address","name":"user","type":"address"},{"indexed":false,"internalType":"uint256","name":"goalIndex","type":"uint256"},{"indexed":false,"internalType":"string","name":"title","type":"string"},{"indexed":false,"internalType":"uint256","name":"stake","type":"uint256"},{"indexed":false,"internalType":"enum GoalForge.HabitType","name":"habitType","type":"uint8"}],"name":"GoalCreated","type":"event"},{"anonymous":false,"inputs":[{"indexed":true,"internalType":"address","name":"user","type":"address"},{"indexed":false,"internalType":"uint256","name":"goalIndex","type":"uint256"},{"indexed":false,"internalType":"uint256","name":"stakeBurned","type":"uint256"}],"name":"GoalFailed","type":"event"},{"anonymous":false,"inputs":[{"indexed":true,"internalType":"address","name":"user","type":"address"},{"indexed":false,"internalType":"uint256","name":"goalIndex","type":"uint256"},{"indexed":false,"internalType":"uint256","name":"progress","type":"uint256"}],"name":"GoalProgress","type":"event"},{"anonymous":false,"inputs":[{"indexed":true,"internalType":"address","name":"user","type":"address"},{"indexed":false,"internalType":"uint256","name":"tokenId","type":"uint256"},{"indexed":false,"internalType":"enum GoalForge.HabitType","name":"habitType","type":"uint8"}],"name":"NFTMinted","type":"event"},{"anonymous":false,"inputs":[{"indexed":true,"internalType":"address","name":"previousOwner","type":"address"},{"indexed":true,"internalType":"address","name":"newOwner","type":"address"}],"name":"OwnershipTransferred","type":"event"},{"anonymous":false,"inputs":[{"indexed":true,"internalType":"address","name":"from","type":"address"},{"indexed":true,"internalType":"address","name":"to","type":"address"},{"indexed":false,"internalType":"uint256","name":"value","type":"uint256"}],"name":"Transfer","type":"event"},{"anonymous":false,"inputs":[{"indexed":true,"internalType":"address","name":"user","type":"address"}],"name":"UserOnboarded","type":"event"},{"inputs":[],"name":"BONUS_RATE","outputs":[{"internalType":"uint256","name":"","type":"uint256"}],"stateMutability":"view","type":"function"},{"inputs":[],"name":"ONBOARDING_TOKENS","outputs":[{"internalType":"uint256","name":"","type":"uint256"}],"stateMutability":"view","type":"function"},{"inputs":[{"internalType":"address","name":"owner","type":"address"},{"internalType":"address","name":"spender","type":"address"}],"name":"allowance","outputs":[{"internalType":"uint256","name":"","type":"uint256"}],"stateMutability":"view","type":"function"},{"inputs":[{"internalType":"address","name":"spender","type":"address"},{"internalType":"uint256","name":"value","type":"uint256"}],"name":"approve","outputs":[{"internalType":"bool","name":"","type":"bool"}],"stateMutability":"nonpayable","type":"function"},{"inputs":[{"internalType":"address","name":"account","type":"address"}],"name":"balanceOf","outputs":[{"internalType":"uint256","name":"","type":"uint256"}],"stateMutability":"view","type":"function"},{"inputs":[{"internalType":"uint256","name":"_goalIndex","type":"uint256"},{"internalType":"bool","name":"_completed","type":"bool"}],"name":"checkInHabit","outputs":[],"stateMutability":"nonpayable","type":"function"},{"inputs":[{"internalType":"enum GoalForge.HabitType","name":"_habitType","type":"uint8"},{"internalType":"uint256","name":"_days","type":"uint256"},{"internalType":"uint256","name":"_lives","type":"uint256"},{"internalType":"uint256","name":"_stake","type":"uint256"},{"internalType":"string","name":"_username","type":"string"}],"name":"createHabit","outputs":[],"stateMutability":"nonpayable","type":"function"},{"inputs":[],"name":"decimals","outputs":[{"internalType":"uint8","name":"","type":"uint8"}],"stateMutability":"view","type":"function"},{"inputs":[],"name":"getAllGoals","outputs":[{"components":[{"internalType":"address","name":"user","type":"address"},{"internalType":"string","name":"title","type":"string"},{"internalType":"string","name":"description","type":"string"},{"internalType":"uint256","name":"startDate","type":"uint256"},{"internalType":"uint256","name":"endDate","type":"uint256"},{"internalType":"uint256","name":"stake","type":"uint256"},{"internalType":"uint256","name":"progress","type":"uint256"},{"internalType":"uint256","name":"livesLeft","type":"uint256"},{"internalType":"bool","name":"completed","type":"bool"},{"internalType":"bool","name":"verified","type":"bool"},{"internalType":"enum GoalForge.HabitType","name":"habitType","type":"uint8"},{"internalType":"string","name":"username","type":"string"},{"internalType":"uint256","name":"totalDays","type":"uint256"},{"internalType":"uint256","name":"currentStreak","type":"uint256"}],"internalType":"struct GoalForge.GoalWithUser[]","name":"","type":"tuple[]"}],"stateMutability":"view","type":"function"},{"inputs":[{"internalType":"address","name":"_user","type":"address"}],"name":"getUserGoals","outputs":[{"components":[{"internalType":"string","name":"title","type":"string"},{"internalType":"string","name":"description","type":"string"},{"internalType":"uint256","name":"startDate","type":"uint256"},{"internalType":"uint256","name":"endDate","type":"uint256"},{"internalType":"uint256","name":"stake","type":"uint256"},{"internalType":"uint256","name":"progress","type":"uint256"},{"internalType":"uint256","name":"livesLeft","type":"uint256"},{"internalType":"bool","name":"completed","type":"bool"},{"internalType":"bool","name":"verified","type":"bool"},{"internalType":"enum GoalForge.HabitType","name":"habitType","type":"uint8"},{"internalType":"string","name":"username","type":"string"},{"internalType":"uint256","name":"totalDays","type":"uint256"},{"internalType":"uint256","name":"currentStreak","type":"uint256"}],"internalType":"struct GoalForge.Goal[]","name":"","type":"tuple[]"}],"stateMutability":"view","type":"function"},{"inputs":[{"internalType":"address","name":"_user","type":"address"}],"name":"getUserNFTs","outputs":[{"internalType":"uint256[]","name":"","type":"uint256[]"}],"stateMutability":"view","type":"function"},{"inputs":[{"internalType":"address","name":"","type":"address"}],"name":"hasOnboarded","outputs":[{"internalType":"bool","name":"","type":"bool"}],"stateMutability":"view","type":"function"},{"inputs":[{"internalType":"address","name":"user","type":"address"}],"name":"hasUserOnboarded","outputs":[{"internalType":"bool","name":"","type":"bool"}],"stateMutability":"view","type":"function"},{"inputs":[],"name":"name","outputs":[{"internalType":"string","name":"","type":"string"}],"stateMutability":"view","type":"function"},{"inputs":[],"name":"nftContract","outputs":[{"internalType":"contract IGoalForgeNFT","name":"","type":"address"}],"stateMutability":"view","type":"function"},{"inputs":[],"name":"onboard","outputs":[],"stateMutability":"nonpayable","type":"function"},{"inputs":[],"name":"owner","outputs":[{"internalType":"address","name":"","type":"address"}],"stateMutability":"view","type":"function"},{"inputs":[],"name":"renounceOwnership","outputs":[],"stateMutability":"nonpayable","type":"function"},{"inputs":[],"name":"symbol","outputs":[{"internalType":"string","name":"","type":"string"}],"stateMutability":"view","type":"function"},{"inputs":[],"name":"totalSupply","outputs":[{"internalType":"uint256","name":"","type":"uint256"}],"stateMutability":"view","type":"function"},{"inputs":[{"internalType":"address","name":"to","type":"address"},{"internalType":"uint256","name":"value","type":"uint256"}],"name":"transfer","outputs":[{"internalType":"bool","name":"","type":"bool"}],"stateMutability":"nonpayable","type":"function"},{"inputs":[{"internalType":"address","name":"from","type":"address"},{"internalType":"address","name":"to","type":"address"},{"internalType":"uint256","name":"value","type":"uint256"}],"name":"transferFrom","outputs":[{"internalType":"bool","name":"","type":"bool"}],"stateMutability":"nonpayable","type":"function"},{"inputs":[{"internalType":"address","name":"newOwner","type":"address"}],"name":"transferOwnership","outputs":[],"stateMutability":"nonpayable","type":"function"},{"inputs":[{"internalType":"address","name":"","type":"address"},{"internalType":"uint256","name":"","type":"uint256"}],"name":"userGoals","outputs":[{"internalType":"string","name":"title","type":"string"},{"internalType":"string","name":"description","type":"string"},{"internalType":"uint256","name":"startDate","type":"uint256"},{"internalType":"uint256","name":"endDate","type":"uint256"},{"internalType":"uint256","name":"stake","type":"uint256"},{"internalType":"uint256","name":"progress","type":"uint256"},{"internalType":"uint256","name":"livesLeft","type":"uint256"},{"internalType":"bool","name":"completed","type":"bool"},{"internalType":"bool","name":"verified","type":"bool"},{"internalType":"enum GoalForge.HabitType","name":"habitType","type":"uint8"},{"internalType":"string","name":"username","type":"string"},{"internalType":"uint256","name":"totalDays","type":"uint256"},{"internalType":"uint256","name":"currentStreak","type":"uint256"}],"stateMutability":"view","type":"function"},{"inputs":[{"internalType":"address","name":"","type":"address"},{"internalType":"uint256","name":"","type":"uint256"}],"name":"userNFTs","outputs":[{"internalType":"uint256","name":"","type":"uint256"}],"stateMutability":"view","type":"function"},{"inputs":[{"internalType":"address","name":"","type":"address"}],"name":"userStakes","outputs":[{"internalType":"uint256","name":"","type":"uint256"}],"stateMutability":"view","type":"function"}],"evm":{"bytecode":{"linkReferences":{},"object":"6080346200041c57601f90601f196001600160401b036200292a38819003858101841685018381118682101762000421578592829160405283396020948591810103126200041c57516001600160a01b0380821693909290918490036200041c576200006a62000437565b6009815268476f616c466f72676560b81b868201526200008962000437565b906004978883526311d3d05360e21b888401528151928484116200031d576003938454936001948581811c9116801562000411575b8c821014620003fc57908b8286859411620003a3575b50508b908583116001146200033e5760009262000332575b505060001982871b1c191690841b1784555b80519485116200031d5789548381811c9116801562000312575b8a821014620002fd57828111620002b2575b50889185116001146200024957849550908492916000956200023d575b50501b92600019911b1c19161784555b33156200022557600580546001600160a01b03198082163390811790935592167f8be0079c531659141344cd1fd0a4f28419497f9722a3daafe3b4186f6b6457e0600080a3600654161760065560025469d3c21bcecceda1000000928382018092116200021057506000917fddf252ad1be2c89b69c2b068fc378daa952ba7f163c4a11628f55a4df523b3ef91600255338352828152604083208481540190556040519384523393a36040516124d29081620004588239f35b601190634e487b7160e01b6000525260246000fd5b604051631e4fbdf760e01b8152600081860152602490fd5b01519350388062000147565b9291948416928960005284896000209460005b8b898383106200029a57505050106200027f575b50505050811b01845562000157565b01519060f884600019921b161c191690553880808062000270565b8686015189559097019694850194889350016200025c565b8a600052896000208380880160051c8201928c8910620002f3575b0160051c019084905b828110620002e65750506200012a565b60008155018490620002d6565b92508192620002cd565b60228b634e487b7160e01b6000525260246000fd5b90607f169062000118565b60418a634e487b7160e01b6000525260246000fd5b015190503880620000ec565b908c918a8895168960005283600020936000905b8282106200038b575050841162000372575b505050811b018455620000fe565b015160001983891b60f8161c1916905538808062000364565b8385015186558a979095019493840193018f62000352565b909192508760005285826000209181860160051c8301938610620003f2575b918891869594930160051c01915b828110620003e257508d9150620000d4565b60008155859450889101620003d0565b92508192620003c2565b60228d634e487b7160e01b6000525260246000fd5b90607f1690620000be565b600080fd5b634e487b7160e01b600052604160045260246000fd5b60408051919082016001600160401b03811183821017620004215760405256fe60a080604052600436101561001357600080fd5b60003560e01c90816306fdde0314611db557508063095ea7b314611d2f57806318160ddd14611d1157806323b872dd14611c1f578063291c73c314611bc7578063313ce56714611bab57806335742c63146119765780633909201e1461195a5780634a9e77041461193657806352de4ee51461188257806370a0823114611848578063715018a6146117eb5780638da5cb5b146117c25780638da7ad2314611788578063907a8550146106fd57806395d89b41146116a2578063a9059cbb14611671578063b6b3eedf14611544578063c75bc9b414611092578063d0396124146108e3578063d56d229d146108ba578063d61d94ca1461078d578063dd62ed3e1461073c578063ea91b888146106fd578063f2fde38b1461066f5763f767c1f31461013d57600080fd5b34610420576040366003190112610420576024600435813580151581036104205733600052600791602091838352604060002054821015610636573360005283835261018d826040600020611f49565b509060ff85830154166105f957600382015442116105be571561047a5760058101908154916001830180931161045057829055600a810190815460018101809111610465576009925560405184815283868201527f4f21ad191759b3f3ddc02d935dbc3c4272e92d6b421012fb1c6deee66cb91c7460403392a20154111561021157005b33600052828252610226816040600020611f49565b509283019061010161ffff198354161782556004840154600a8102818104600a148215171561045057606490049061025f8133306120e9565b336000526008855260406000206102778282546121a9565b905533156104385761028b8260025461219c565b60025533600052600085526040600020828154019055604051828152600060008051602061247d833981519152873393a38460018060a01b0360065416966064896000600960ff8a5460101c16946102e286611f29565b6102eb86611f29565b01549a6040519b8c958694632769c3d960e11b865233600487015261030f82611f29565b85015260448401525af195861561042c576000966103f8575b5033600052600985526040600020805497600160401b8910156103e457508761035a91600160ff98999a018155611f11565b81549060031b9089821b91600019901b19161790556040519283528583015260408201527f16449261b25040c4e0165849c1a4ff734e3d27cf63c877dc6465aa1ae364d0b260603392a25460101c16906040519283526103b982611f29565b8201527f5716925f2a990bb51e5354134a606547c86dc787be1a2729eef575fd0c2bea1e60403392a2005b634e487b7160e01b60009081526041600452fd5b9095508481813d8311610425575b6104108183611ff5565b8101031261042057519438610328565b600080fd5b503d610406565b6040513d6000823e3d90fd5b60405163ec442f0560e01b8152600060048201528790fd5b86634e487b7160e01b60005260116004526000fd5b87634e487b7160e01b60005260116004526000fd5b6006018054909391929190156104b45750508154600019810193915083116104a0575055005b634e487b7160e01b60009081526011600452fd5b60049192949350336000528083526104d0856040600020611f49565b50908101805461ffff191661010017905501549130156105a85750306000526000815260406000205482811061057f5782903060005260008352036040600020558160025403600255600060405183815260008051602061247d833981519152833092a33360005260088152604060002061054c8382546121a9565b90556040519283528201527f7f45ee7d54490e82bc37a7339b6947f4e402697ebc45a9a3cb85699966efa0f460403392a2005b60405163391434e360e21b81523060048201526024810191909152604481019290925250606490fd5b604051634b637e8f60e11b815260006004820152fd5b60405162461bcd60e51b8152600481018590526014818801527311dbd85b081c195c9a5bd908199a5b9a5cda195960621b6044820152606490fd5b60405162461bcd60e51b8152600481018590526016818801527511dbd85b08185b1c9958591e4818dbdb5c1b195d195960521b6044820152606490fd5b60405162461bcd60e51b81526004810184905260128187015271092dcecc2d8d2c840cedec2d840d2dcc8caf60731b6044820152606490fd5b3461042057602036600319011261042057610688611e98565b6106906120bd565b6001600160a01b039081169081156106e457600554826bffffffffffffffffffffffff60a01b821617600555167f8be0079c531659141344cd1fd0a4f28419497f9722a3daafe3b4186f6b6457e0600080a3005b604051631e4fbdf760e01b815260006004820152602490fd5b34610420576020366003190112610420576001600160a01b0361071e611e98565b16600052600a602052602060ff604060002054166040519015158152f35b3461042057604036600319011261042057610755611e98565b61075d611eae565b9060018060a01b038091166000526001602052604060002091166000526020526020604060002054604051908152f35b346104205760003660031901126104205733600052600a60205260ff604060002054166108755733600052600a6020526040600020600160ff19825416179055331561085c5760025468056bc75e2d6310000090818101809111610846576002553360005260006020526040600020818154019055604051908152600060008051602061247d83398151915260203393a3337f08860844848c5c0fb7c92caada90feb35bdf2494ca5eb1bf1287c6d396cb7990600080a2005b634e487b7160e01b600052601160045260246000fd5b60405163ec442f0560e01b815260006004820152602490fd5b60405162461bcd60e51b815260206004820152601a60248201527f557365722068617320616c7265616479206f6e626f61726465640000000000006044820152606490fd5b34610420576000366003190112610420576006546040516001600160a01b039091168152602090f35b346104205760a036600319011261042057600560043510156104205760843567ffffffffffffffff8111610420573660238201121561042057806004013567ffffffffffffffff8111610da25760405191610948601f8301601f191660200184611ff5565b8183523660248383010111610420578160009260246020930183860137830101526024351561104d576005604435116110085760643515610fc35733600052600060205260643560406000205410610f87576109a56004356121f1565b906109b360643530336120e9565b33600052600860205260406000206109ce606435825461219c565b90556109db600435612325565b9062015180602435808202048103610846576109fb90602435024261219c565b60405192610a0884611f9f565b848452602084015242604084015260608301526064356080830152600060a083015260443560c0830152600060e08301526000610100830152610a4c600435611f29565b600435610120830152610140820152602435610160820152600061018082015233600052600760205260406000205415610f47575b33600052600760205260406000208054600160401b811015610da257610aac91600182018155611f49565b929092610f3157815192835167ffffffffffffffff8111610da257610ad18254611f65565b601f8111610eed575b506020601f8211600114610e84578192939495600092610e79575b50508160011b916000199060031b1c19161781555b602083015192835167ffffffffffffffff8111610da257610b2e6001840154611f65565b601f8111610e32575b506020601f8211600114610dc3578192939495600092610db8575b50508160011b916000199060031b1c19161760018301555b60408101516002830155606081015160038301556080810151600483015560a0810151600583015560c081015160068301556007820160e08201511515815461ff00610100850151151560081b169060ff62ff0000610120870151610bce81611f29565b610bd781611f29565b60101b1693169062ffffff1916171717905561014081015180519067ffffffffffffffff8211610da257610c0e6008850154611f65565b601f8111610d5b575b50602090601f8311600114610ce7579180600a949261018094600092610cdc575b50508160011b916000199060031b1c19161760088501555b6101608101516009850155015191015533600052600760205260406000205490600019820191821161084657610cb87f12fb293550b723fe28c45e196a2fc0ec8be20ad0cb353c052fffb0c4dd00b0b791604051938452608060208501526080840190611e58565b916064356040820152610ccc600435611f29565b60043560608201528033930390a2005b015190508780610c38565b90601f198316916008860160005260206000209260005b818110610d43575092600192859261018096600a989610610d2a575b505050811b016008850155610c50565b015160001960f88460031b161c19169055878080610d1a565b92936020600181928786015181550195019301610cfe565b600885016000526020600020601f840160051c810160208510610d9b575b601f830160051c82018110610d8f575050610c17565b60008155600101610d79565b5080610d79565b634e487b7160e01b600052604160045260246000fd5b015190508580610b52565b6001840160005260206000209060005b601f1984168110610e1a575060019394959683601f19811610610e01575b505050811b016001830155610b6a565b015160001960f88460031b161c19169055858080610df1565b9091602060018192858b015181550193019101610dd3565b600184016000526020600020601f830160051c810160208410610e72575b601f830160051c82018110610e66575050610b37565b60008155600101610e50565b5080610e50565b015190508580610af5565b8260005260206000209060005b601f1984168110610ed5575060019394959683601f19811610610ebc575b505050811b018155610b0a565b015160001960f88460031b161c19169055858080610eaf565b9091602060018192858b015181550193019101610e91565b826000526020600020601f830160051c810160208410610f2a575b601f830160051c82018110610f1e575050610ada565b60008155600101610f08565b5080610f08565b634e487b7160e01b600052600060045260246000fd5b600b54600160401b811015610da257806001610f669201600b55611ec4565b81546001600160a01b0360039290921b91821b19163390911b179055610a81565b60405162461bcd60e51b8152602060048201526014602482015273496e73756666696369656e742062616c616e636560601b6044820152606490fd5b60405162461bcd60e51b815260206004820152601c60248201527f5374616b65206d7573742062652067726561746572207468616e2030000000006044820152606490fd5b60405162461bcd60e51b815260206004820152601760248201527f4d6178696d756d2035206c6976657320616c6c6f7765640000000000000000006044820152606490fd5b60405162461bcd60e51b815260206004820152601b60248201527f44617973206d7573742062652067726561746572207468616e203000000000006044820152606490fd5b3461042057600036600319011261042057600080600b54905b81811061150557506110bc826121c5565b916110ca6040519384611ff5565b8083526110d9601f19916121c5565b0160005b8181106114885750506000906000915b818310611210576040805160208082528651818301819052600093600582901b8401810192808a01929185015b8287106111275785850386f35b909192938280600192603f19898203018552875190848060a01b0382511681526111ea611176611164858501516101c08088870152850190611e58565b60408501518482036040860152611e58565b606080850151908401526080808501519084015260a0808501519084015260c0808501519084015260e084015160e0840152610100808501511515908401526101208085015115159084015261014080850151906111d382611f29565b840152610160808501519084830390850152611e58565b9161018080820151908301526101a080910151910152960192019601959291909261111a565b61121c83949293611ec4565b9190549060039060018060a01b038385841b1c166000526007908160205260406000209182549061124c826121c5565b9361125a6040519586611ff5565b82855260208501906000526020600020916000915b8483106113c35750505050506000905b82518210156113ab578561129383856121dd565b51808787825160208401516040850151606086015160808701519060a08801519260c08901519460e08a01511515966101008b01511515986101208c01519a6112db8c611f29565b6101408d01519c61016001519d61018001519e604051806080526112fe90611fbc565b600160a01b60019003921b1c16608051526080516020015260805160400152608051606001526080516080015260805160a0015260805160c0015260805160e001526080516101000152608051610120015261135981611f29565b6080516101400152608051610160015260805161018001526080516101a0015260805161138682896121dd565b5261139181886121dd565b5061139b906121b6565b906113a5906121b6565b9061127f565b959793505050506113bc91506121b6565b91906110ed565b600b60206001926040516113d681611f9f565b6113df88612017565b81526113ec858901612017565b83820152600288015460408201528b880154606082015260048801546080820152600588015460a0820152600688015460c082015261145e8689015460ff808216151560e08501526008918181841c16151561010086015260101c1661145181611f29565b6101208401528901612017565b6101408201526009880154610160820152600a88015461018082015281520194019201919261126f565b60209060405161149781611fbc565b6000815260608390808284015280604084015260008184015260006080840152600060a0840152600060c0840152600060e0840152600061010084015260006101208401526000610140840152610160830152600061018083015260006101a08301528287010152016110dd565b9161153961153f9161151685611ec4565b60018060a01b0391549060031b1c1660005260076020526040600020549061219c565b926121b6565b6110ab565b346104205760403660031901126104205761155d611e98565b6001600160a01b031660009081526007602052604090208054602435908110156104205761158a91611f49565b5061159481612017565b6115a060018301612017565b916002810154600382015490600483015490600584015460068501546007860154908160101c60ff1692600888016115d790612017565b95600989015498600a0154976040519b8c9b8c6101a08091528d016115fb91611e58565b8c810360208e015261160c91611e58565b9660408c015260608b015260808a015260a089015260c088015260ff8116151560e088015260081c60ff16151561010087015261164881611f29565b61012086015284810361014086015261166091611e58565b916101608401526101808301520390f35b346104205760403660031901126104205761169761168d611e98565b60243590336120e9565b602060405160018152f35b346104205760003660031901126104205760405160006004546116c481611f65565b808452906001908181169081156117615750600114611706575b611702846116ee81860382611ff5565b604051918291602083526020830190611e58565b0390f35b6004600090815292507f8a35acfbc15ff81a39ae7d344fd709f28e8600b4aa8c65c6b64bfe7fe36bd19b5b8284106117495750505081016020016116ee826116de565b80546020858701810191909152909301928101611731565b60ff191660208087019190915292151560051b850190920192506116ee91508390506116de565b34610420576020366003190112610420576001600160a01b036117a9611e98565b1660005260086020526020604060002054604051908152f35b34610420576000366003190112610420576005546040516001600160a01b039091168152602090f35b34610420576000366003190112610420576118046120bd565b600580546001600160a01b031981169091556000906001600160a01b03167f8be0079c531659141344cd1fd0a4f28419497f9722a3daafe3b4186f6b6457e08280a3005b34610420576020366003190112610420576001600160a01b03611869611e98565b1660005260006020526020604060002054604051908152f35b3461042057602080600319360112610420576001600160a01b036118a4611e98565b1660005260098152604060002060405190818382549182815201908192600052846000209060005b868282106119225786866118e282880383611ff5565b604051928392818401908285525180915260408401929160005b82811061190b57505050500390f35b8351855286955093810193928101926001016118fc565b8354855290930192600192830192016118cc565b3461042057600036600319011261042057602060405168056bc75e2d631000008152f35b34610420576000366003190112610420576020604051600a8152f35b3461042057602080600319360112610420576001600160a01b03611998611e98565b16600052600790818152604060002080546119b2816121c5565b936119c06040519586611ff5565b81855260009283528383208486019391845b848410611ae057604080518881528951818a01819052600092600582901b83018101918a918c9085015b828710611a095785850386f35b909192938280600192603f19898203018552875190611aba611a47611a3784516101a0808652850190611e58565b8585015184820387860152611e58565b60408401516040840152606080850151908401526080808501519084015260a0808501519084015260c0808501519084015260e0840151151560e0840152610100808501511515908401526101208085015190611aa382611f29565b840152610140808501519084830390850152611e58565b9161016080820151908301526101808091015191015296019201960195929190926119fc565b600b8760019260409a999a51611af581611f9f565b611afe87612017565b8152611b0b858801612017565b83820152600287015460408201526003870154606082015260048701546080820152600587015460a0820152600687015460c0820152611b7e8688015460ff808216151560e08501526008918181841c16151561010086015260101c16611b7181611f29565b6101208401528801612017565b6101408201526009870154610160820152600a8701546101808201528152019301930192919695966119d2565b3461042057600036600319011261042057602060405160128152f35b3461042057604036600319011261042057611be0611e98565b6001600160a01b031660009081526009602052604090208054602435919082101561042057602091611c1191611f11565b90546040519160031b1c8152f35b3461042057606036600319011261042057611c38611e98565b611c40611eae565b6001600160a01b03821660008181526001602090815260408083203384529091529020549260443592916000198510611c7f575b5061169793506120e9565b838510611ceb578015611cd2573315611cb95761169794849160005260016020526040600020336000526020520360406000205584611c74565b604051634a1406b160e11b815260006004820152602490fd5b60405163e602df0560e01b815260006004820152602490fd5b604051637dc7a0d960e11b81523360048201526024810186905260448101859052606490fd5b34610420576000366003190112610420576020600254604051908152f35b3461042057604036600319011261042057611d48611e98565b602435903315611cd2576001600160a01b0316908115611cb957336000526001602052604060002082600052602052806040600020556040519081527f8c5be1e5ebec7d5bd14f71427d1e84f3dd0314c0f7b2291e5b200ac8c7c3b92560203392a3602060405160018152f35b34610420576000366003190112610420576000600354611dd481611f65565b808452906001908181169081156117615750600114611dfd57611702846116ee81860382611ff5565b6003600090815292507fc2575a0e9e593c00f959f8c92f12db2869c3395a3b0502d05e2516446f71f85b5b828410611e405750505081016020016116ee826116de565b80546020858701810191909152909301928101611e28565b919082519283825260005b848110611e84575050826000602080949584010152601f8019910116010190565b602081830181015184830182015201611e63565b600435906001600160a01b038216820361042057565b602435906001600160a01b038216820361042057565b600b54811015611efb57600b6000527f0175b7a638427703f0dbe7bb9bbf987a2551717b34e79f33b5b1008d1fa01db90190600090565b634e487b7160e01b600052603260045260246000fd5b8054821015611efb5760005260206000200190600090565b60051115611f3357565b634e487b7160e01b600052602160045260246000fd5b8054821015611efb57600052600b602060002091020190600090565b90600182811c92168015611f95575b6020831014611f7f57565b634e487b7160e01b600052602260045260246000fd5b91607f1691611f74565b6101a0810190811067ffffffffffffffff821117610da257604052565b6101c0810190811067ffffffffffffffff821117610da257604052565b6040810190811067ffffffffffffffff821117610da257604052565b90601f8019910116810190811067ffffffffffffffff821117610da257604052565b906040519182600082549261202b84611f65565b90818452600194858116908160001461209a5750600114612057575b505061205592500383611ff5565b565b9093915060005260209081600020936000915b81831061208257505061205593508201013880612047565b8554888401850152948501948794509183019161206a565b91505061205594506020925060ff191682840152151560051b8201013880612047565b6005546001600160a01b031633036120d157565b60405163118cdaa760e01b8152336004820152602490fd5b916001600160a01b03808416928315612183571692831561085c57600090838252816020526040822054908382106121515750916040828260008051602061247d833981519152958760209652828652038282205586815220818154019055604051908152a3565b60405163391434e360e21b81526001600160a01b03919091166004820152602481019190915260448101839052606490fd5b604051634b637e8f60e11b815260006004820152602490fd5b9190820180921161084657565b9190820391821161084657565b60001981146108465760010190565b67ffffffffffffffff8111610da25760051b60200190565b8051821015611efb5760209160051b010190565b6121fa81611f29565b80156122eb5761220981611f29565b600181146122bd5761221a81611f29565b6002811461228f578061222e600392611f29565b146122605760405161223f81611fd9565b601181527052756e6e696e67204368616c6c656e676560781b602082015290565b60405161226c81611fd9565b60138152724461696c7920596f676120507261637469636560681b602082015290565b5060405161229c81611fd9565b601181527011de5b48151c985a5b9a5b99c811dbd85b607a1b602082015290565b506040516122ca81611fd9565b60118152704d61737465722044534120536b696c6c7360781b602082015290565b506040516122f881611fd9565b601c81527f4c6576656c20557020596f757220436f64696e6720536b696c6c732100000000602082015290565b61232e81611f29565b80156124425761233d81611f29565b600181146124085761234e81611f29565b600281146123ce5780612362600392611f29565b146123955760405161237381611fd9565b601281527111185a5b1e481c9d5b9b9a5b99c819dbd85b60721b602082015290565b6040516123a181611fd9565b601b81527f436f6d706c657465206461696c7920796f67612073657373696f6e0000000000602082015290565b506040516123db81611fd9565b601981527f4461696c792067796d20776f726b6f75742073657373696f6e00000000000000602082015290565b5060405161241581611fd9565b601d81527f536f6c7665204c656574436f64652070726f626c656d73206461696c79000000602082015290565b5060405161244f81611fd9565b601f81527f4d616b65206461696c792047697448756220636f6e747269627574696f6e730060208201529056feddf252ad1be2c89b69c2b068fc378daa952ba7f163c4a11628f55a4df523b3efa26469706673582212201cd6cc562cb3a78e1a95b41c912a88cc70dd319ab6cecac4a61ce35dc16c026564736f6c63430008140033","opcodes":"PUSH1 0x80 CALLVALUE PUSH3 0x41C JUMPI PUSH1 0x1F SWAP1 PUSH1 0x1F NOT PUSH1 0x1 PUSH1 0x1 PUSH1 0x40 SHL SUB PUSH3 0x292A CODESIZE DUP2 SWAP1 SUB DUP6 DUP2 ADD DUP5 AND DUP6 ADD DUP4 DUP2 GT DUP7 DUP3 LT OR PUSH3 0x421 JUMPI DUP6 SWAP3 DUP3 SWAP2 PUSH1 0x40 MSTORE DUP4 CODECOPY PUSH1 0x20 SWAP5 DUP6 SWAP2 DUP2 ADD SUB SLT PUSH3 0x41C JUMPI MLOAD PUSH1 0x1 PUSH1 0x1 PUSH1 0xA0 SHL SUB DUP1 DUP3 AND SWAP4 SWAP1 SWAP3 SWAP1 SWAP2 DUP5 SWAP1 SUB PUSH3 0x41C JUMPI PUSH3 0x6A PUSH3 0x437 JUMP JUMPDEST PUSH1 0x9 DUP2 MSTORE PUSH9 0x476F616C466F726765 PUSH1 0xB8 SHL DUP7 DUP3 ADD MSTORE PUSH3 0x89 PUSH3 0x437 JUMP JUMPDEST SWAP1 PUSH1 0x4 SWAP8 DUP9 DUP4 MSTORE PUSH4 0x11D3D053 PUSH1 0xE2 SHL DUP9 DUP5 ADD MSTORE DUP2 MLOAD SWAP3 DUP5 DUP5 GT PUSH3 0x31D JUMPI PUSH1 0x3 SWAP4 DUP5 SLOAD SWAP4 PUSH1 0x1 SWAP5 DUP6 DUP2 DUP2 SHR SWAP2 AND DUP1 ISZERO PUSH3 0x411 JUMPI JUMPDEST DUP13 DUP3 LT EQ PUSH3 0x3FC JUMPI SWAP1 DUP12 DUP3 DUP7 DUP6 SWAP5 GT PUSH3 0x3A3 JUMPI JUMPDEST POP POP DUP12 SWAP1 DUP6 DUP4 GT PUSH1 0x1 EQ PUSH3 0x33E JUMPI PUSH1 0x0 SWAP3 PUSH3 0x332 JUMPI JUMPDEST POP POP PUSH1 0x0 NOT DUP3 DUP8 SHL SHR NOT AND SWAP1 DUP5 SHL OR DUP5 SSTORE JUMPDEST DUP1 MLOAD SWAP5 DUP6 GT PUSH3 0x31D JUMPI DUP10 SLOAD DUP4 DUP2 DUP2 SHR SWAP2 AND DUP1 ISZERO PUSH3 0x312 JUMPI JUMPDEST DUP11 DUP3 LT EQ PUSH3 0x2FD JUMPI DUP3 DUP2 GT PUSH3 0x2B2 JUMPI JUMPDEST POP DUP9 SWAP2 DUP6 GT PUSH1 0x1 EQ PUSH3 0x249 JUMPI DUP5 SWAP6 POP SWAP1 DUP5 SWAP3 SWAP2 PUSH1 0x0 SWAP6 PUSH3 0x23D JUMPI JUMPDEST POP POP SHL SWAP3 PUSH1 0x0 NOT SWAP2 SHL SHR NOT AND OR DUP5 SSTORE JUMPDEST CALLER ISZERO PUSH3 0x225 JUMPI PUSH1 0x5 DUP1 SLOAD PUSH1 0x1 PUSH1 0x1 PUSH1 0xA0 SHL SUB NOT DUP1 DUP3 AND CALLER SWAP1 DUP2 OR SWAP1 SWAP4 SSTORE SWAP3 AND PUSH32 0x8BE0079C531659141344CD1FD0A4F28419497F9722A3DAAFE3B4186F6B6457E0 PUSH1 0x0 DUP1 LOG3 PUSH1 0x6 SLOAD AND OR PUSH1 0x6 SSTORE PUSH1 0x2 SLOAD PUSH10 0xD3C21BCECCEDA1000000 SWAP3 DUP4 DUP3 ADD DUP1 SWAP3 GT PUSH3 0x210 JUMPI POP PUSH1 0x0 SWAP2 PUSH32 0xDDF252AD1BE2C89B69C2B068FC378DAA952BA7F163C4A11628F55A4DF523B3EF SWAP2 PUSH1 0x2 SSTORE CALLER DUP4 MSTORE DUP3 DUP2 MSTORE PUSH1 0x40 DUP4 KECCAK256 DUP5 DUP2 SLOAD ADD SWAP1 SSTORE PUSH1 0x40 MLOAD SWAP4 DUP5 MSTORE CALLER SWAP4 LOG3 PUSH1 0x40 MLOAD PUSH2 0x24D2 SWAP1 DUP2 PUSH3 0x458 DUP3 CODECOPY RETURN JUMPDEST PUSH1 0x11 SWAP1 PUSH4 0x4E487B71 PUSH1 0xE0 SHL PUSH1 0x0 MSTORE MSTORE PUSH1 0x24 PUSH1 0x0 REVERT JUMPDEST PUSH1 0x40 MLOAD PUSH4 0x1E4FBDF7 PUSH1 0xE0 SHL DUP2 MSTORE PUSH1 0x0 DUP2 DUP7 ADD MSTORE PUSH1 0x24 SWAP1 REVERT JUMPDEST ADD MLOAD SWAP4 POP CODESIZE DUP1 PUSH3 0x147 JUMP JUMPDEST SWAP3 SWAP2 SWAP5 DUP5 AND SWAP3 DUP10 PUSH1 0x0 MSTORE DUP5 DUP10 PUSH1 0x0 KECCAK256 SWAP5 PUSH1 0x0 JUMPDEST DUP12 DUP10 DUP4 DUP4 LT PUSH3 0x29A JUMPI POP POP POP LT PUSH3 0x27F JUMPI JUMPDEST POP POP POP POP DUP2 SHL ADD DUP5 SSTORE PUSH3 0x157 JUMP JUMPDEST ADD MLOAD SWAP1 PUSH1 0xF8 DUP5 PUSH1 0x0 NOT SWAP3 SHL AND SHR NOT AND SWAP1 SSTORE CODESIZE DUP1 DUP1 DUP1 PUSH3 0x270 JUMP JUMPDEST DUP7 DUP7 ADD MLOAD DUP10 SSTORE SWAP1 SWAP8 ADD SWAP7 SWAP5 DUP6 ADD SWAP5 DUP9 SWAP4 POP ADD PUSH3 0x25C JUMP JUMPDEST DUP11 PUSH1 0x0 MSTORE DUP10 PUSH1 0x0 KECCAK256 DUP4 DUP1 DUP9 ADD PUSH1 0x5 SHR DUP3 ADD SWAP3 DUP13 DUP10 LT PUSH3 0x2F3 JUMPI JUMPDEST ADD PUSH1 0x5 SHR ADD SWAP1 DUP5 SWAP1 JUMPDEST DUP3 DUP2 LT PUSH3 0x2E6 JUMPI POP POP PUSH3 0x12A JUMP JUMPDEST PUSH1 0x0 DUP2 SSTORE ADD DUP5 SWAP1 PUSH3 0x2D6 JUMP JUMPDEST SWAP3 POP DUP2 SWAP3 PUSH3 0x2CD JUMP JUMPDEST PUSH1 0x22 DUP12 PUSH4 0x4E487B71 PUSH1 0xE0 SHL PUSH1 0x0 MSTORE MSTORE PUSH1 0x24 PUSH1 0x0 REVERT JUMPDEST SWAP1 PUSH1 0x7F AND SWAP1 PUSH3 0x118 JUMP JUMPDEST PUSH1 0x41 DUP11 PUSH4 0x4E487B71 PUSH1 0xE0 SHL PUSH1 0x0 MSTORE MSTORE PUSH1 0x24 PUSH1 0x0 REVERT JUMPDEST ADD MLOAD SWAP1 POP CODESIZE DUP1 PUSH3 0xEC JUMP JUMPDEST SWAP1 DUP13 SWAP2 DUP11 DUP9 SWAP6 AND DUP10 PUSH1 0x0 MSTORE DUP4 PUSH1 0x0 KECCAK256 SWAP4 PUSH1 0x0 SWAP1 JUMPDEST DUP3 DUP3 LT PUSH3 0x38B JUMPI POP POP DUP5 GT PUSH3 0x372 JUMPI JUMPDEST POP POP POP DUP2 SHL ADD DUP5 SSTORE PUSH3 0xFE JUMP JUMPDEST ADD MLOAD PUSH1 0x0 NOT DUP4 DUP10 SHL PUSH1 0xF8 AND SHR NOT AND SWAP1 SSTORE CODESIZE DUP1 DUP1 PUSH3 0x364 JUMP JUMPDEST DUP4 DUP6 ADD MLOAD DUP7 SSTORE DUP11 SWAP8 SWAP1 SWAP6 ADD SWAP5 SWAP4 DUP5 ADD SWAP4 ADD DUP16 PUSH3 0x352 JUMP JUMPDEST SWAP1 SWAP2 SWAP3 POP DUP8 PUSH1 0x0 MSTORE DUP6 DUP3 PUSH1 0x0 KECCAK256 SWAP2 DUP2 DUP7 ADD PUSH1 0x5 SHR DUP4 ADD SWAP4 DUP7 LT PUSH3 0x3F2 JUMPI JUMPDEST SWAP2 DUP9 SWAP2 DUP7 SWAP6 SWAP5 SWAP4 ADD PUSH1 0x5 SHR ADD SWAP2 JUMPDEST DUP3 DUP2 LT PUSH3 0x3E2 JUMPI POP DUP14 SWAP2 POP PUSH3 0xD4 JUMP JUMPDEST PUSH1 0x0 DUP2 SSTORE DUP6 SWAP5 POP DUP9 SWAP2 ADD PUSH3 0x3D0 JUMP JUMPDEST SWAP3 POP DUP2 SWAP3 PUSH3 0x3C2 JUMP JUMPDEST PUSH1 0x22 DUP14 PUSH4 0x4E487B71 PUSH1 0xE0 SHL PUSH1 0x0 MSTORE MSTORE PUSH1 0x24 PUSH1 0x0 REVERT JUMPDEST SWAP1 PUSH1 0x7F AND SWAP1 PUSH3 0xBE JUMP JUMPDEST PUSH1 0x0 DUP1 REVERT JUMPDEST PUSH4 0x4E487B71 PUSH1 0xE0 SHL PUSH1 0x0 MSTORE PUSH1 0x41 PUSH1 0x4 MSTORE PUSH1 0x24 PUSH1 0x0 REVERT JUMPDEST PUSH1 0x40 DUP1 MLOAD SWAP2 SWAP1 DUP3 ADD PUSH1 0x1 PUSH1 0x1 PUSH1 0x40 SHL SUB DUP2 GT DUP4 DUP3 LT OR PUSH3 0x421 JUMPI PUSH1 0x40 MSTORE JUMP INVALID PUSH1 0xA0 DUP1 PUSH1 0x40 MSTORE PUSH1 0x4 CALLDATASIZE LT ISZERO PUSH2 0x13 JUMPI PUSH1 0x0 DUP1 REVERT JUMPDEST PUSH1 0x0 CALLDATALOAD PUSH1 0xE0 SHR SWAP1 DUP2 PUSH4 0x6FDDE03 EQ PUSH2 0x1DB5 JUMPI POP DUP1 PUSH4 0x95EA7B3 EQ PUSH2 0x1D2F JUMPI DUP1 PUSH4 0x18160DDD EQ PUSH2 0x1D11 JUMPI DUP1 PUSH4 0x23B872DD EQ PUSH2 0x1C1F JUMPI DUP1 PUSH4 0x291C73C3 EQ PUSH2 0x1BC7 JUMPI DUP1 PUSH4 0x313CE567 EQ PUSH2 0x1BAB JUMPI DUP1 PUSH4 0x35742C63 EQ PUSH2 0x1976 JUMPI DUP1 PUSH4 0x3909201E EQ PUSH2 0x195A JUMPI DUP1 PUSH4 0x4A9E7704 EQ PUSH2 0x1936 JUMPI DUP1 PUSH4 0x52DE4EE5 EQ PUSH2 0x1882 JUMPI DUP1 PUSH4 0x70A08231 EQ PUSH2 0x1848 JUMPI DUP1 PUSH4 0x715018A6 EQ PUSH2 0x17EB JUMPI DUP1 PUSH4 0x8DA5CB5B EQ PUSH2 0x17C2 JUMPI DUP1 PUSH4 0x8DA7AD23 EQ PUSH2 0x1788 JUMPI DUP1 PUSH4 0x907A8550 EQ PUSH2 0x6FD JUMPI DUP1 PUSH4 0x95D89B41 EQ PUSH2 0x16A2 JUMPI DUP1 PUSH4 0xA9059CBB EQ PUSH2 0x1671 JUMPI DUP1 PUSH4 0xB6B3EEDF EQ PUSH2 0x1544 JUMPI DUP1 PUSH4 0xC75BC9B4 EQ PUSH2 0x1092 JUMPI DUP1 PUSH4 0xD0396124 EQ PUSH2 0x8E3 JUMPI DUP1 PUSH4 0xD56D229D EQ PUSH2 0x8BA JUMPI DUP1 PUSH4 0xD61D94CA EQ PUSH2 0x78D JUMPI DUP1 PUSH4 0xDD62ED3E EQ PUSH2 0x73C JUMPI DUP1 PUSH4 0xEA91B888 EQ PUSH2 0x6FD JUMPI DUP1 PUSH4 0xF2FDE38B EQ PUSH2 0x66F JUMPI PUSH4 0xF767C1F3 EQ PUSH2 0x13D JUMPI PUSH1 0x0 DUP1 REVERT JUMPDEST CALLVALUE PUSH2 0x420 JUMPI PUSH1 0x40 CALLDATASIZE PUSH1 0x3 NOT ADD SLT PUSH2 0x420 JUMPI PUSH1 0x24 PUSH1 0x4 CALLDATALOAD DUP2 CALLDATALOAD DUP1 ISZERO ISZERO DUP2 SUB PUSH2 0x420 JUMPI CALLER PUSH1 0x0 MSTORE PUSH1 0x7 SWAP2 PUSH1 0x20 SWAP2 DUP4 DUP4 MSTORE PUSH1 0x40 PUSH1 0x0 KECCAK256 SLOAD DUP3 LT ISZERO PUSH2 0x636 JUMPI CALLER PUSH1 0x0 MSTORE DUP4 DUP4 MSTORE PUSH2 0x18D DUP3 PUSH1 0x40 PUSH1 0x0 KECCAK256 PUSH2 0x1F49 JUMP JUMPDEST POP SWAP1 PUSH1 0xFF DUP6 DUP4 ADD SLOAD AND PUSH2 0x5F9 JUMPI PUSH1 0x3 DUP3 ADD SLOAD TIMESTAMP GT PUSH2 0x5BE JUMPI ISZERO PUSH2 0x47A JUMPI PUSH1 0x5 DUP2 ADD SWAP1 DUP2 SLOAD SWAP2 PUSH1 0x1 DUP4 ADD DUP1 SWAP4 GT PUSH2 0x450 JUMPI DUP3 SWAP1 SSTORE PUSH1 0xA DUP2 ADD SWAP1 DUP2 SLOAD PUSH1 0x1 DUP2 ADD DUP1 SWAP2 GT PUSH2 0x465 JUMPI PUSH1 0x9 SWAP3 SSTORE PUSH1 0x40 MLOAD DUP5 DUP2 MSTORE DUP4 DUP7 DUP3 ADD MSTORE PUSH32 0x4F21AD191759B3F3DDC02D935DBC3C4272E92D6B421012FB1C6DEEE66CB91C74 PUSH1 0x40 CALLER SWAP3 LOG2 ADD SLOAD GT ISZERO PUSH2 0x211 JUMPI STOP JUMPDEST CALLER PUSH1 0x0 MSTORE DUP3 DUP3 MSTORE PUSH2 0x226 DUP2 PUSH1 0x40 PUSH1 0x0 KECCAK256 PUSH2 0x1F49 JUMP JUMPDEST POP SWAP3 DUP4 ADD SWAP1 PUSH2 0x101 PUSH2 0xFFFF NOT DUP4 SLOAD AND OR DUP3 SSTORE PUSH1 0x4 DUP5 ADD SLOAD PUSH1 0xA DUP2 MUL DUP2 DUP2 DIV PUSH1 0xA EQ DUP3 ISZERO OR ISZERO PUSH2 0x450 JUMPI PUSH1 0x64 SWAP1 DIV SWAP1 PUSH2 0x25F DUP2 CALLER ADDRESS PUSH2 0x20E9 JUMP JUMPDEST CALLER PUSH1 0x0 MSTORE PUSH1 0x8 DUP6 MSTORE PUSH1 0x40 PUSH1 0x0 KECCAK256 PUSH2 0x277 DUP3 DUP3 SLOAD PUSH2 0x21A9 JUMP JUMPDEST SWAP1 SSTORE CALLER ISZERO PUSH2 0x438 JUMPI PUSH2 0x28B DUP3 PUSH1 0x2 SLOAD PUSH2 0x219C JUMP JUMPDEST PUSH1 0x2 SSTORE CALLER PUSH1 0x0 MSTORE PUSH1 0x0 DUP6 MSTORE PUSH1 0x40 PUSH1 0x0 KECCAK256 DUP3 DUP2 SLOAD ADD SWAP1 SSTORE PUSH1 0x40 MLOAD DUP3 DUP2 MSTORE PUSH1 0x0 PUSH1 0x0 DUP1 MLOAD PUSH1 0x20 PUSH2 0x247D DUP4 CODECOPY DUP2 MLOAD SWAP2 MSTORE DUP8 CALLER SWAP4 LOG3 DUP5 PUSH1 0x1 DUP1 PUSH1 0xA0 SHL SUB PUSH1 0x6 SLOAD AND SWAP7 PUSH1 0x64 DUP10 PUSH1 0x0 PUSH1 0x9 PUSH1 0xFF DUP11 SLOAD PUSH1 0x10 SHR AND SWAP5 PUSH2 0x2E2 DUP7 PUSH2 0x1F29 JUMP JUMPDEST PUSH2 0x2EB DUP7 PUSH2 0x1F29 JUMP JUMPDEST ADD SLOAD SWAP11 PUSH1 0x40 MLOAD SWAP12 DUP13 SWAP6 DUP7 SWAP5 PUSH4 0x2769C3D9 PUSH1 0xE1 SHL DUP7 MSTORE CALLER PUSH1 0x4 DUP8 ADD MSTORE PUSH2 0x30F DUP3 PUSH2 0x1F29 JUMP JUMPDEST DUP6 ADD MSTORE PUSH1 0x44 DUP5 ADD MSTORE GAS CALL SWAP6 DUP7 ISZERO PUSH2 0x42C JUMPI PUSH1 0x0 SWAP7 PUSH2 0x3F8 JUMPI JUMPDEST POP CALLER PUSH1 0x0 MSTORE PUSH1 0x9 DUP6 MSTORE PUSH1 0x40 PUSH1 0x0 KECCAK256 DUP1 SLOAD SWAP8 PUSH1 0x1 PUSH1 0x40 SHL DUP10 LT ISZERO PUSH2 0x3E4 JUMPI POP DUP8 PUSH2 0x35A SWAP2 PUSH1 0x1 PUSH1 0xFF SWAP9 SWAP10 SWAP11 ADD DUP2 SSTORE PUSH2 0x1F11 JUMP JUMPDEST DUP2 SLOAD SWAP1 PUSH1 0x3 SHL SWAP1 DUP10 DUP3 SHL SWAP2 PUSH1 0x0 NOT SWAP1 SHL NOT AND OR SWAP1 SSTORE PUSH1 0x40 MLOAD SWAP3 DUP4 MSTORE DUP6 DUP4 ADD MSTORE PUSH1 0x40 DUP3 ADD MSTORE PUSH32 0x16449261B25040C4E0165849C1A4FF734E3D27CF63C877DC6465AA1AE364D0B2 PUSH1 0x60 CALLER SWAP3 LOG2 SLOAD PUSH1 0x10 SHR AND SWAP1 PUSH1 0x40 MLOAD SWAP3 DUP4 MSTORE PUSH2 0x3B9 DUP3 PUSH2 0x1F29 JUMP JUMPDEST DUP3 ADD MSTORE PUSH32 0x5716925F2A990BB51E5354134A606547C86DC787BE1A2729EEF575FD0C2BEA1E PUSH1 0x40 CALLER SWAP3 LOG2 STOP JUMPDEST PUSH4 0x4E487B71 PUSH1 0xE0 SHL PUSH1 0x0 SWAP1 DUP2 MSTORE PUSH1 0x41 PUSH1 0x4 MSTORE REVERT JUMPDEST SWAP1 SWAP6 POP DUP5 DUP2 DUP2 RETURNDATASIZE DUP4 GT PUSH2 0x425 JUMPI JUMPDEST PUSH2 0x410 DUP2 DUP4 PUSH2 0x1FF5 JUMP JUMPDEST DUP2 ADD SUB SLT PUSH2 0x420 JUMPI MLOAD SWAP5 CODESIZE PUSH2 0x328 JUMP JUMPDEST PUSH1 0x0 DUP1 REVERT JUMPDEST POP RETURNDATASIZE PUSH2 0x406 JUMP JUMPDEST PUSH1 0x40 MLOAD RETURNDATASIZE PUSH1 0x0 DUP3 RETURNDATACOPY RETURNDATASIZE SWAP1 REVERT JUMPDEST PUSH1 0x40 MLOAD PUSH4 0xEC442F05 PUSH1 0xE0 SHL DUP2 MSTORE PUSH1 0x0 PUSH1 0x4 DUP3 ADD MSTORE DUP8 SWAP1 REVERT JUMPDEST DUP7 PUSH4 0x4E487B71 PUSH1 0xE0 SHL PUSH1 0x0 MSTORE PUSH1 0x11 PUSH1 0x4 MSTORE PUSH1 0x0 REVERT JUMPDEST DUP8 PUSH4 0x4E487B71 PUSH1 0xE0 SHL PUSH1 0x0 MSTORE PUSH1 0x11 PUSH1 0x4 MSTORE PUSH1 0x0 REVERT JUMPDEST PUSH1 0x6 ADD DUP1 SLOAD SWAP1 SWAP4 SWAP2 SWAP3 SWAP2 SWAP1 ISZERO PUSH2 0x4B4 JUMPI POP POP DUP2 SLOAD PUSH1 0x0 NOT DUP2 ADD SWAP4 SWAP2 POP DUP4 GT PUSH2 0x4A0 JUMPI POP SSTORE STOP JUMPDEST PUSH4 0x4E487B71 PUSH1 0xE0 SHL PUSH1 0x0 SWAP1 DUP2 MSTORE PUSH1 0x11 PUSH1 0x4 MSTORE REVERT JUMPDEST PUSH1 0x4 SWAP2 SWAP3 SWAP5 SWAP4 POP CALLER PUSH1 0x0 MSTORE DUP1 DUP4 MSTORE PUSH2 0x4D0 DUP6 PUSH1 0x40 PUSH1 0x0 KECCAK256 PUSH2 0x1F49 JUMP JUMPDEST POP SWAP1 DUP2 ADD DUP1 SLOAD PUSH2 0xFFFF NOT AND PUSH2 0x100 OR SWAP1 SSTORE ADD SLOAD SWAP2 ADDRESS ISZERO PUSH2 0x5A8 JUMPI POP ADDRESS PUSH1 0x0 MSTORE PUSH1 0x0 DUP2 MSTORE PUSH1 0x40 PUSH1 0x0 KECCAK256 SLOAD DUP3 DUP2 LT PUSH2 0x57F JUMPI DUP3 SWAP1 ADDRESS PUSH1 0x0 MSTORE PUSH1 0x0 DUP4 MSTORE SUB PUSH1 0x40 PUSH1 0x0 KECCAK256 SSTORE DUP2 PUSH1 0x2 SLOAD SUB PUSH1 0x2 SSTORE PUSH1 0x0 PUSH1 0x40 MLOAD DUP4 DUP2 MSTORE PUSH1 0x0 DUP1 MLOAD PUSH1 0x20 PUSH2 0x247D DUP4 CODECOPY DUP2 MLOAD SWAP2 MSTORE DUP4 ADDRESS SWAP3 LOG3 CALLER PUSH1 0x0 MSTORE PUSH1 0x8 DUP2 MSTORE PUSH1 0x40 PUSH1 0x0 KECCAK256 PUSH2 0x54C DUP4 DUP3 SLOAD PUSH2 0x21A9 JUMP JUMPDEST SWAP1 SSTORE PUSH1 0x40 MLOAD SWAP3 DUP4 MSTORE DUP3 ADD MSTORE PUSH32 0x7F45EE7D54490E82BC37A7339B6947F4E402697EBC45A9A3CB85699966EFA0F4 PUSH1 0x40 CALLER SWAP3 LOG2 STOP JUMPDEST PUSH1 0x40 MLOAD PUSH4 0x391434E3 PUSH1 0xE2 SHL DUP2 MSTORE ADDRESS PUSH1 0x4 DUP3 ADD MSTORE PUSH1 0x24 DUP2 ADD SWAP2 SWAP1 SWAP2 MSTORE PUSH1 0x44 DUP2 ADD SWAP3 SWAP1 SWAP3 MSTORE POP PUSH1 0x64 SWAP1 REVERT JUMPDEST PUSH1 0x40 MLOAD PUSH4 0x4B637E8F PUSH1 0xE1 SHL DUP2 MSTORE PUSH1 0x0 PUSH1 0x4 DUP3 ADD MSTORE REVERT JUMPDEST PUSH1 0x40 MLOAD PUSH3 0x461BCD PUSH1 0xE5 SHL DUP2 MSTORE PUSH1 0x4 DUP2 ADD DUP6 SWAP1 MSTORE PUSH1 0x14 DUP2 DUP9 ADD MSTORE PUSH20 0x11DBD85B081C195C9A5BD908199A5B9A5CDA1959 PUSH1 0x62 SHL PUSH1 0x44 DUP3 ADD MSTORE PUSH1 0x64 SWAP1 REVERT JUMPDEST PUSH1 0x40 MLOAD PUSH3 0x461BCD PUSH1 0xE5 SHL DUP2 MSTORE PUSH1 0x4 DUP2 ADD DUP6 SWAP1 MSTORE PUSH1 0x16 DUP2 DUP9 ADD MSTORE PUSH22 0x11DBD85B08185B1C9958591E4818DBDB5C1B195D1959 PUSH1 0x52 SHL PUSH1 0x44 DUP3 ADD MSTORE PUSH1 0x64 SWAP1 REVERT JUMPDEST PUSH1 0x40 MLOAD PUSH3 0x461BCD PUSH1 0xE5 SHL DUP2 MSTORE PUSH1 0x4 DUP2 ADD DUP5 SWAP1 MSTORE PUSH1 0x12 DUP2 DUP8 ADD MSTORE PUSH18 0x92DCECC2D8D2C840CEDEC2D840D2DCC8CAF PUSH1 0x73 SHL PUSH1 0x44 DUP3 ADD MSTORE PUSH1 0x64 SWAP1 REVERT JUMPDEST CALLVALUE PUSH2 0x420 JUMPI PUSH1 0x20 CALLDATASIZE PUSH1 0x3 NOT ADD SLT PUSH2 0x420 JUMPI PUSH2 0x688 PUSH2 0x1E98 JUMP JUMPDEST PUSH2 0x690 PUSH2 0x20BD JUMP JUMPDEST PUSH1 0x1 PUSH1 0x1 PUSH1 0xA0 SHL SUB SWAP1 DUP2 AND SWAP1 DUP2 ISZERO PUSH2 0x6E4 JUMPI PUSH1 0x5 SLOAD DUP3 PUSH12 0xFFFFFFFFFFFFFFFFFFFFFFFF PUSH1 0xA0 SHL DUP3 AND OR PUSH1 0x5 SSTORE AND PUSH32 0x8BE0079C531659141344CD1FD0A4F28419497F9722A3DAAFE3B4186F6B6457E0 PUSH1 0x0 DUP1 LOG3 STOP JUMPDEST PUSH1 0x40 MLOAD PUSH4 0x1E4FBDF7 PUSH1 0xE0 SHL DUP2 MSTORE PUSH1 0x0 PUSH1 0x4 DUP3 ADD MSTORE PUSH1 0x24 SWAP1 REVERT JUMPDEST CALLVALUE PUSH2 0x420 JUMPI PUSH1 0x20 CALLDATASIZE PUSH1 0x3 NOT ADD SLT PUSH2 0x420 JUMPI PUSH1 0x1 PUSH1 0x1 PUSH1 0xA0 SHL SUB PUSH2 0x71E PUSH2 0x1E98 JUMP JUMPDEST AND PUSH1 0x0 MSTORE PUSH1 0xA PUSH1 0x20 MSTORE PUSH1 0x20 PUSH1 0xFF PUSH1 0x40 PUSH1 0x0 KECCAK256 SLOAD AND PUSH1 0x40 MLOAD SWAP1 ISZERO ISZERO DUP2 MSTORE RETURN JUMPDEST CALLVALUE PUSH2 0x420 JUMPI PUSH1 0x40 CALLDATASIZE PUSH1 0x3 NOT ADD SLT PUSH2 0x420 JUMPI PUSH2 0x755 PUSH2 0x1E98 JUMP JUMPDEST PUSH2 0x75D PUSH2 0x1EAE JUMP JUMPDEST SWAP1 PUSH1 0x1 DUP1 PUSH1 0xA0 SHL SUB DUP1 SWAP2 AND PUSH1 0x0 MSTORE PUSH1 0x1 PUSH1 0x20 MSTORE PUSH1 0x40 PUSH1 0x0 KECCAK256 SWAP2 AND PUSH1 0x0 MSTORE PUSH1 0x20 MSTORE PUSH1 0x20 PUSH1 0x40 PUSH1 0x0 KECCAK256 SLOAD PUSH1 0x40 MLOAD SWAP1 DUP2 MSTORE RETURN JUMPDEST CALLVALUE PUSH2 0x420 JUMPI PUSH1 0x0 CALLDATASIZE PUSH1 0x3 NOT ADD SLT PUSH2 0x420 JUMPI CALLER PUSH1 0x0 MSTORE PUSH1 0xA PUSH1 0x20 MSTORE PUSH1 0xFF PUSH1 0x40 PUSH1 0x0 KECCAK256 SLOAD AND PUSH2 0x875 JUMPI CALLER PUSH1 0x0 MSTORE PUSH1 0xA PUSH1 0x20 MSTORE PUSH1 0x40 PUSH1 0x0 KECCAK256 PUSH1 0x1 PUSH1 0xFF NOT DUP3 SLOAD AND OR SWAP1 SSTORE CALLER ISZERO PUSH2 0x85C JUMPI PUSH1 0x2 SLOAD PUSH9 0x56BC75E2D63100000 SWAP1 DUP2 DUP2 ADD DUP1 SWAP2 GT PUSH2 0x846 JUMPI PUSH1 0x2 SSTORE CALLER PUSH1 0x0 MSTORE PUSH1 0x0 PUSH1 0x20 MSTORE PUSH1 0x40 PUSH1 0x0 KECCAK256 DUP2 DUP2 SLOAD ADD SWAP1 SSTORE PUSH1 0x40 MLOAD SWAP1 DUP2 MSTORE PUSH1 0x0 PUSH1 0x0 DUP1 MLOAD PUSH1 0x20 PUSH2 0x247D DUP4 CODECOPY DUP2 MLOAD SWAP2 MSTORE PUSH1 0x20 CALLER SWAP4 LOG3 CALLER PUSH32 0x8860844848C5C0FB7C92CAADA90FEB35BDF2494CA5EB1BF1287C6D396CB7990 PUSH1 0x0 DUP1 LOG2 STOP JUMPDEST PUSH4 0x4E487B71 PUSH1 0xE0 SHL PUSH1 0x0 MSTORE PUSH1 0x11 PUSH1 0x4 MSTORE PUSH1 0x24 PUSH1 0x0 REVERT JUMPDEST PUSH1 0x40 MLOAD PUSH4 0xEC442F05 PUSH1 0xE0 SHL DUP2 MSTORE PUSH1 0x0 PUSH1 0x4 DUP3 ADD MSTORE PUSH1 0x24 SWAP1 REVERT JUMPDEST PUSH1 0x40 MLOAD PUSH3 0x461BCD PUSH1 0xE5 SHL DUP2 MSTORE PUSH1 0x20 PUSH1 0x4 DUP3 ADD MSTORE PUSH1 0x1A PUSH1 0x24 DUP3 ADD MSTORE PUSH32 0x557365722068617320616C7265616479206F6E626F6172646564000000000000 PUSH1 0x44 DUP3 ADD MSTORE PUSH1 0x64 SWAP1 REVERT JUMPDEST CALLVALUE PUSH2 0x420 JUMPI PUSH1 0x0 CALLDATASIZE PUSH1 0x3 NOT ADD SLT PUSH2 0x420 JUMPI PUSH1 0x6 SLOAD PUSH1 0x40 MLOAD PUSH1 0x1 PUSH1 0x1 PUSH1 0xA0 SHL SUB SWAP1 SWAP2 AND DUP2 MSTORE PUSH1 0x20 SWAP1 RETURN JUMPDEST CALLVALUE PUSH2 0x420 JUMPI PUSH1 0xA0 CALLDATASIZE PUSH1 0x3 NOT ADD SLT PUSH2 0x420 JUMPI PUSH1 0x5 PUSH1 0x4 CALLDATALOAD LT ISZERO PUSH2 0x420 JUMPI PUSH1 0x84 CALLDATALOAD PUSH8 0xFFFFFFFFFFFFFFFF DUP2 GT PUSH2 0x420 JUMPI CALLDATASIZE PUSH1 0x23 DUP3 ADD SLT ISZERO PUSH2 0x420 JUMPI DUP1 PUSH1 0x4 ADD CALLDATALOAD PUSH8 0xFFFFFFFFFFFFFFFF DUP2 GT PUSH2 0xDA2 JUMPI PUSH1 0x40 MLOAD SWAP2 PUSH2 0x948 PUSH1 0x1F DUP4 ADD PUSH1 0x1F NOT AND PUSH1 0x20 ADD DUP5 PUSH2 0x1FF5 JUMP JUMPDEST DUP2 DUP4 MSTORE CALLDATASIZE PUSH1 0x24 DUP4 DUP4 ADD ADD GT PUSH2 0x420 JUMPI DUP2 PUSH1 0x0 SWAP3 PUSH1 0x24 PUSH1 0x20 SWAP4 ADD DUP4 DUP7 ADD CALLDATACOPY DUP4 ADD ADD MSTORE PUSH1 0x24 CALLDATALOAD ISZERO PUSH2 0x104D JUMPI PUSH1 0x5 PUSH1 0x44 CALLDATALOAD GT PUSH2 0x1008 JUMPI PUSH1 0x64 CALLDATALOAD ISZERO PUSH2 0xFC3 JUMPI CALLER PUSH1 0x0 MSTORE PUSH1 0x0 PUSH1 0x20 MSTORE PUSH1 0x64 CALLDATALOAD PUSH1 0x40 PUSH1 0x0 KECCAK256 SLOAD LT PUSH2 0xF87 JUMPI PUSH2 0x9A5 PUSH1 0x4 CALLDATALOAD PUSH2 0x21F1 JUMP JUMPDEST SWAP1 PUSH2 0x9B3 PUSH1 0x64 CALLDATALOAD ADDRESS CALLER PUSH2 0x20E9 JUMP JUMPDEST CALLER PUSH1 0x0 MSTORE PUSH1 0x8 PUSH1 0x20 MSTORE PUSH1 0x40 PUSH1 0x0 KECCAK256 PUSH2 0x9CE PUSH1 0x64 CALLDATALOAD DUP3 SLOAD PUSH2 0x219C JUMP JUMPDEST SWAP1 SSTORE PUSH2 0x9DB PUSH1 0x4 CALLDATALOAD PUSH2 0x2325 JUMP JUMPDEST SWAP1 PUSH3 0x15180 PUSH1 0x24 CALLDATALOAD DUP1 DUP3 MUL DIV DUP2 SUB PUSH2 0x846 JUMPI PUSH2 0x9FB SWAP1 PUSH1 0x24 CALLDATALOAD MUL TIMESTAMP PUSH2 0x219C JUMP JUMPDEST PUSH1 0x40 MLOAD SWAP3 PUSH2 0xA08 DUP5 PUSH2 0x1F9F JUMP JUMPDEST DUP5 DUP5 MSTORE PUSH1 0x20 DUP5 ADD MSTORE TIMESTAMP PUSH1 0x40 DUP5 ADD MSTORE PUSH1 0x60 DUP4 ADD MSTORE PUSH1 0x64 CALLDATALOAD PUSH1 0x80 DUP4 ADD MSTORE PUSH1 0x0 PUSH1 0xA0 DUP4 ADD MSTORE PUSH1 0x44 CALLDATALOAD PUSH1 0xC0 DUP4 ADD MSTORE PUSH1 0x0 PUSH1 0xE0 DUP4 ADD MSTORE PUSH1 0x0 PUSH2 0x100 DUP4 ADD MSTORE PUSH2 0xA4C PUSH1 0x4 CALLDATALOAD PUSH2 0x1F29 JUMP JUMPDEST PUSH1 0x4 CALLDATALOAD PUSH2 0x120 DUP4 ADD MSTORE PUSH2 0x140 DUP3 ADD MSTORE PUSH1 0x24 CALLDATALOAD PUSH2 0x160 DUP3 ADD MSTORE PUSH1 0x0 PUSH2 0x180 DUP3 ADD MSTORE CALLER PUSH1 0x0 MSTORE PUSH1 0x7 PUSH1 0x20 MSTORE PUSH1 0x40 PUSH1 0x0 KECCAK256 SLOAD ISZERO PUSH2 0xF47 JUMPI JUMPDEST CALLER PUSH1 0x0 MSTORE PUSH1 0x7 PUSH1 0x20 MSTORE PUSH1 0x40 PUSH1 0x0 KECCAK256 DUP1 SLOAD PUSH1 0x1 PUSH1 0x40 SHL DUP2 LT ISZERO PUSH2 0xDA2 JUMPI PUSH2 0xAAC SWAP2 PUSH1 0x1 DUP3 ADD DUP2 SSTORE PUSH2 0x1F49 JUMP JUMPDEST SWAP3 SWAP1 SWAP3 PUSH2 0xF31 JUMPI DUP2 MLOAD SWAP3 DUP4 MLOAD PUSH8 0xFFFFFFFFFFFFFFFF DUP2 GT PUSH2 0xDA2 JUMPI PUSH2 0xAD1 DUP3 SLOAD PUSH2 0x1F65 JUMP JUMPDEST PUSH1 0x1F DUP2 GT PUSH2 0xEED JUMPI JUMPDEST POP PUSH1 0x20 PUSH1 0x1F DUP3 GT PUSH1 0x1 EQ PUSH2 0xE84 JUMPI DUP2 SWAP3 SWAP4 SWAP5 SWAP6 PUSH1 0x0 SWAP3 PUSH2 0xE79 JUMPI JUMPDEST POP POP DUP2 PUSH1 0x1 SHL SWAP2 PUSH1 0x0 NOT SWAP1 PUSH1 0x3 SHL SHR NOT AND OR DUP2 SSTORE JUMPDEST PUSH1 0x20 DUP4 ADD MLOAD SWAP3 DUP4 MLOAD PUSH8 0xFFFFFFFFFFFFFFFF DUP2 GT PUSH2 0xDA2 JUMPI PUSH2 0xB2E PUSH1 0x1 DUP5 ADD SLOAD PUSH2 0x1F65 JUMP JUMPDEST PUSH1 0x1F DUP2 GT PUSH2 0xE32 JUMPI JUMPDEST POP PUSH1 0x20 PUSH1 0x1F DUP3 GT PUSH1 0x1 EQ PUSH2 0xDC3 JUMPI DUP2 SWAP3 SWAP4 SWAP5 SWAP6 PUSH1 0x0 SWAP3 PUSH2 0xDB8 JUMPI JUMPDEST POP POP DUP2 PUSH1 0x1 SHL SWAP2 PUSH1 0x0 NOT SWAP1 PUSH1 0x3 SHL SHR NOT AND OR PUSH1 0x1 DUP4 ADD SSTORE JUMPDEST PUSH1 0x40 DUP2 ADD MLOAD PUSH1 0x2 DUP4 ADD SSTORE PUSH1 0x60 DUP2 ADD MLOAD PUSH1 0x3 DUP4 ADD SSTORE PUSH1 0x80 DUP2 ADD MLOAD PUSH1 0x4 DUP4 ADD SSTORE PUSH1 0xA0 DUP2 ADD MLOAD PUSH1 0x5 DUP4 ADD SSTORE PUSH1 0xC0 DUP2 ADD MLOAD PUSH1 0x6 DUP4 ADD SSTORE PUSH1 0x7 DUP3 ADD PUSH1 0xE0 DUP3 ADD MLOAD ISZERO ISZERO DUP2 SLOAD PUSH2 0xFF00 PUSH2 0x100 DUP6 ADD MLOAD ISZERO ISZERO PUSH1 0x8 SHL AND SWAP1 PUSH1 0xFF PUSH3 0xFF0000 PUSH2 0x120 DUP8 ADD MLOAD PUSH2 0xBCE DUP2 PUSH2 0x1F29 JUMP JUMPDEST PUSH2 0xBD7 DUP2 PUSH2 0x1F29 JUMP JUMPDEST PUSH1 0x10 SHL AND SWAP4 AND SWAP1 PUSH3 0xFFFFFF NOT AND OR OR OR SWAP1 SSTORE PUSH2 0x140 DUP2 ADD MLOAD DUP1 MLOAD SWAP1 PUSH8 0xFFFFFFFFFFFFFFFF DUP3 GT PUSH2 0xDA2 JUMPI PUSH2 0xC0E PUSH1 0x8 DUP6 ADD SLOAD PUSH2 0x1F65 JUMP JUMPDEST PUSH1 0x1F DUP2 GT PUSH2 0xD5B JUMPI JUMPDEST POP PUSH1 0x20 SWAP1 PUSH1 0x1F DUP4 GT PUSH1 0x1 EQ PUSH2 0xCE7 JUMPI SWAP2 DUP1 PUSH1 0xA SWAP5 SWAP3 PUSH2 0x180 SWAP5 PUSH1 0x0 SWAP3 PUSH2 0xCDC JUMPI JUMPDEST POP POP DUP2 PUSH1 0x1 SHL SWAP2 PUSH1 0x0 NOT SWAP1 PUSH1 0x3 SHL SHR NOT AND OR PUSH1 0x8 DUP6 ADD SSTORE JUMPDEST PUSH2 0x160 DUP2 ADD MLOAD PUSH1 0x9 DUP6 ADD SSTORE ADD MLOAD SWAP2 ADD SSTORE CALLER PUSH1 0x0 MSTORE PUSH1 0x7 PUSH1 0x20 MSTORE PUSH1 0x40 PUSH1 0x0 KECCAK256 SLOAD SWAP1 PUSH1 0x0 NOT DUP3 ADD SWAP2 DUP3 GT PUSH2 0x846 JUMPI PUSH2 0xCB8 PUSH32 0x12FB293550B723FE28C45E196A2FC0EC8BE20AD0CB353C052FFFB0C4DD00B0B7 SWAP2 PUSH1 0x40 MLOAD SWAP4 DUP5 MSTORE PUSH1 0x80 PUSH1 0x20 DUP6 ADD MSTORE PUSH1 0x80 DUP5 ADD SWAP1 PUSH2 0x1E58 JUMP JUMPDEST SWAP2 PUSH1 0x64 CALLDATALOAD PUSH1 0x40 DUP3 ADD MSTORE PUSH2 0xCCC PUSH1 0x4 CALLDATALOAD PUSH2 0x1F29 JUMP JUMPDEST PUSH1 0x4 CALLDATALOAD PUSH1 0x60 DUP3 ADD MSTORE DUP1 CALLER SWAP4 SUB SWAP1 LOG2 STOP JUMPDEST ADD MLOAD SWAP1 POP DUP8 DUP1 PUSH2 0xC38 JUMP JUMPDEST SWAP1 PUSH1 0x1F NOT DUP4 AND SWAP2 PUSH1 0x8 DUP7 ADD PUSH1 0x0 MSTORE PUSH1 0x20 PUSH1 0x0 KECCAK256 SWAP3 PUSH1 0x0 JUMPDEST DUP2 DUP2 LT PUSH2 0xD43 JUMPI POP SWAP3 PUSH1 0x1 SWAP3 DUP6 SWAP3 PUSH2 0x180 SWAP7 PUSH1 0xA SWAP9 SWAP7 LT PUSH2 0xD2A JUMPI JUMPDEST POP POP POP DUP2 SHL ADD PUSH1 0x8 DUP6 ADD SSTORE PUSH2 0xC50 JUMP JUMPDEST ADD MLOAD PUSH1 0x0 NOT PUSH1 0xF8 DUP5 PUSH1 0x3 SHL AND SHR NOT AND SWAP1 SSTORE DUP8 DUP1 DUP1 PUSH2 0xD1A JUMP JUMPDEST SWAP3 SWAP4 PUSH1 0x20 PUSH1 0x1 DUP2 SWAP3 DUP8 DUP7 ADD MLOAD DUP2 SSTORE ADD SWAP6 ADD SWAP4 ADD PUSH2 0xCFE JUMP JUMPDEST PUSH1 0x8 DUP6 ADD PUSH1 0x0 MSTORE PUSH1 0x20 PUSH1 0x0 KECCAK256 PUSH1 0x1F DUP5 ADD PUSH1 0x5 SHR DUP2 ADD PUSH1 0x20 DUP6 LT PUSH2 0xD9B JUMPI JUMPDEST PUSH1 0x1F DUP4 ADD PUSH1 0x5 SHR DUP3 ADD DUP2 LT PUSH2 0xD8F JUMPI POP POP PUSH2 0xC17 JUMP JUMPDEST PUSH1 0x0 DUP2 SSTORE PUSH1 0x1 ADD PUSH2 0xD79 JUMP JUMPDEST POP DUP1 PUSH2 0xD79 JUMP JUMPDEST PUSH4 0x4E487B71 PUSH1 0xE0 SHL PUSH1 0x0 MSTORE PUSH1 0x41 PUSH1 0x4 MSTORE PUSH1 0x24 PUSH1 0x0 REVERT JUMPDEST ADD MLOAD SWAP1 POP DUP6 DUP1 PUSH2 0xB52 JUMP JUMPDEST PUSH1 0x1 DUP5 ADD PUSH1 0x0 MSTORE PUSH1 0x20 PUSH1 0x0 KECCAK256 SWAP1 PUSH1 0x0 JUMPDEST PUSH1 0x1F NOT DUP5 AND DUP2 LT PUSH2 0xE1A JUMPI POP PUSH1 0x1 SWAP4 SWAP5 SWAP6 SWAP7 DUP4 PUSH1 0x1F NOT DUP2 AND LT PUSH2 0xE01 JUMPI JUMPDEST POP POP POP DUP2 SHL ADD PUSH1 0x1 DUP4 ADD SSTORE PUSH2 0xB6A JUMP JUMPDEST ADD MLOAD PUSH1 0x0 NOT PUSH1 0xF8 DUP5 PUSH1 0x3 SHL AND SHR NOT AND SWAP1 SSTORE DUP6 DUP1 DUP1 PUSH2 0xDF1 JUMP JUMPDEST SWAP1 SWAP2 PUSH1 0x20 PUSH1 0x1 DUP2 SWAP3 DUP6 DUP12 ADD MLOAD DUP2 SSTORE ADD SWAP4 ADD SWAP2 ADD PUSH2 0xDD3 JUMP JUMPDEST PUSH1 0x1 DUP5 ADD PUSH1 0x0 MSTORE PUSH1 0x20 PUSH1 0x0 KECCAK256 PUSH1 0x1F DUP4 ADD PUSH1 0x5 SHR DUP2 ADD PUSH1 0x20 DUP5 LT PUSH2 0xE72 JUMPI JUMPDEST PUSH1 0x1F DUP4 ADD PUSH1 0x5 SHR DUP3 ADD DUP2 LT PUSH2 0xE66 JUMPI POP POP PUSH2 0xB37 JUMP JUMPDEST PUSH1 0x0 DUP2 SSTORE PUSH1 0x1 ADD PUSH2 0xE50 JUMP JUMPDEST POP DUP1 PUSH2 0xE50 JUMP JUMPDEST ADD MLOAD SWAP1 POP DUP6 DUP1 PUSH2 0xAF5 JUMP JUMPDEST DUP3 PUSH1 0x0 MSTORE PUSH1 0x20 PUSH1 0x0 KECCAK256 SWAP1 PUSH1 0x0 JUMPDEST PUSH1 0x1F NOT DUP5 AND DUP2 LT PUSH2 0xED5 JUMPI POP PUSH1 0x1 SWAP4 SWAP5 SWAP6 SWAP7 DUP4 PUSH1 0x1F NOT DUP2 AND LT PUSH2 0xEBC JUMPI JUMPDEST POP POP POP DUP2 SHL ADD DUP2 SSTORE PUSH2 0xB0A JUMP JUMPDEST ADD MLOAD PUSH1 0x0 NOT PUSH1 0xF8 DUP5 PUSH1 0x3 SHL AND SHR NOT AND SWAP1 SSTORE DUP6 DUP1 DUP1 PUSH2 0xEAF JUMP JUMPDEST SWAP1 SWAP2 PUSH1 0x20 PUSH1 0x1 DUP2 SWAP3 DUP6 DUP12 ADD MLOAD DUP2 SSTORE ADD SWAP4 ADD SWAP2 ADD PUSH2 0xE91 JUMP JUMPDEST DUP3 PUSH1 0x0 MSTORE PUSH1 0x20 PUSH1 0x0 KECCAK256 PUSH1 0x1F DUP4 ADD PUSH1 0x5 SHR DUP2 ADD PUSH1 0x20 DUP5 LT PUSH2 0xF2A JUMPI JUMPDEST PUSH1 0x1F DUP4 ADD PUSH1 0x5 SHR DUP3 ADD DUP2 LT PUSH2 0xF1E JUMPI POP POP PUSH2 0xADA JUMP JUMPDEST PUSH1 0x0 DUP2 SSTORE PUSH1 0x1 ADD PUSH2 0xF08 JUMP JUMPDEST POP DUP1 PUSH2 0xF08 JUMP JUMPDEST PUSH4 0x4E487B71 PUSH1 0xE0 SHL PUSH1 0x0 MSTORE PUSH1 0x0 PUSH1 0x4 MSTORE PUSH1 0x24 PUSH1 0x0 REVERT JUMPDEST PUSH1 0xB SLOAD PUSH1 0x1 PUSH1 0x40 SHL DUP2 LT ISZERO PUSH2 0xDA2 JUMPI DUP1 PUSH1 0x1 PUSH2 0xF66 SWAP3 ADD PUSH1 0xB SSTORE PUSH2 0x1EC4 JUMP JUMPDEST DUP2 SLOAD PUSH1 0x1 PUSH1 0x1 PUSH1 0xA0 SHL SUB PUSH1 0x3 SWAP3 SWAP1 SWAP3 SHL SWAP2 DUP3 SHL NOT AND CALLER SWAP1 SWAP2 SHL OR SWAP1 SSTORE PUSH2 0xA81 JUMP JUMPDEST PUSH1 0x40 MLOAD PUSH3 0x461BCD PUSH1 0xE5 SHL DUP2 MSTORE PUSH1 0x20 PUSH1 0x4 DUP3 ADD MSTORE PUSH1 0x14 PUSH1 0x24 DUP3 ADD MSTORE PUSH20 0x496E73756666696369656E742062616C616E6365 PUSH1 0x60 SHL PUSH1 0x44 DUP3 ADD MSTORE PUSH1 0x64 SWAP1 REVERT JUMPDEST PUSH1 0x40 MLOAD PUSH3 0x461BCD PUSH1 0xE5 SHL DUP2 MSTORE PUSH1 0x20 PUSH1 0x4 DUP3 ADD MSTORE PUSH1 0x1C PUSH1 0x24 DUP3 ADD MSTORE PUSH32 0x5374616B65206D7573742062652067726561746572207468616E203000000000 PUSH1 0x44 DUP3 ADD MSTORE PUSH1 0x64 SWAP1 REVERT JUMPDEST PUSH1 0x40 MLOAD PUSH3 0x461BCD PUSH1 0xE5 SHL DUP2 MSTORE PUSH1 0x20 PUSH1 0x4 DUP3 ADD MSTORE PUSH1 0x17 PUSH1 0x24 DUP3 ADD MSTORE PUSH32 0x4D6178696D756D2035206C6976657320616C6C6F776564000000000000000000 PUSH1 0x44 DUP3 ADD MSTORE PUSH1 0x64 SWAP1 REVERT JUMPDEST PUSH1 0x40 MLOAD PUSH3 0x461BCD PUSH1 0xE5 SHL DUP2 MSTORE PUSH1 0x20 PUSH1 0x4 DUP3 ADD MSTORE PUSH1 0x1B PUSH1 0x24 DUP3 ADD MSTORE PUSH32 0x44617973206D7573742062652067726561746572207468616E20300000000000 PUSH1 0x44 DUP3 ADD MSTORE PUSH1 0x64 SWAP1 REVERT JUMPDEST CALLVALUE PUSH2 0x420 JUMPI PUSH1 0x0 CALLDATASIZE PUSH1 0x3 NOT ADD SLT PUSH2 0x420 JUMPI PUSH1 0x0 DUP1 PUSH1 0xB SLOAD SWAP1 JUMPDEST DUP2 DUP2 LT PUSH2 0x1505 JUMPI POP PUSH2 0x10BC DUP3 PUSH2 0x21C5 JUMP JUMPDEST SWAP2 PUSH2 0x10CA PUSH1 0x40 MLOAD SWAP4 DUP5 PUSH2 0x1FF5 JUMP JUMPDEST DUP1 DUP4 MSTORE PUSH2 0x10D9 PUSH1 0x1F NOT SWAP2 PUSH2 0x21C5 JUMP JUMPDEST ADD PUSH1 0x0 JUMPDEST DUP2 DUP2 LT PUSH2 0x1488 JUMPI POP POP PUSH1 0x0 SWAP1 PUSH1 0x0 SWAP2 JUMPDEST DUP2 DUP4 LT PUSH2 0x1210 JUMPI PUSH1 0x40 DUP1 MLOAD PUSH1 0x20 DUP1 DUP3 MSTORE DUP7 MLOAD DUP2 DUP4 ADD DUP2 SWAP1 MSTORE PUSH1 0x0 SWAP4 PUSH1 0x5 DUP3 SWAP1 SHL DUP5 ADD DUP2 ADD SWAP3 DUP1 DUP11 ADD SWAP3 SWAP2 DUP6 ADD JUMPDEST DUP3 DUP8 LT PUSH2 0x1127 JUMPI DUP6 DUP6 SUB DUP7 RETURN JUMPDEST SWAP1 SWAP2 SWAP3 SWAP4 DUP3 DUP1 PUSH1 0x1 SWAP3 PUSH1 0x3F NOT DUP10 DUP3 SUB ADD DUP6 MSTORE DUP8 MLOAD SWAP1 DUP5 DUP1 PUSH1 0xA0 SHL SUB DUP3 MLOAD AND DUP2 MSTORE PUSH2 0x11EA PUSH2 0x1176 PUSH2 0x1164 DUP6 DUP6 ADD MLOAD PUSH2 0x1C0 DUP1 DUP9 DUP8 ADD MSTORE DUP6 ADD SWAP1 PUSH2 0x1E58 JUMP JUMPDEST PUSH1 0x40 DUP6 ADD MLOAD DUP5 DUP3 SUB PUSH1 0x40 DUP7 ADD MSTORE PUSH2 0x1E58 JUMP JUMPDEST PUSH1 0x60 DUP1 DUP6 ADD MLOAD SWAP1 DUP5 ADD MSTORE PUSH1 0x80 DUP1 DUP6 ADD MLOAD SWAP1 DUP5 ADD MSTORE PUSH1 0xA0 DUP1 DUP6 ADD MLOAD SWAP1 DUP5 ADD MSTORE PUSH1 0xC0 DUP1 DUP6 ADD MLOAD SWAP1 DUP5 ADD MSTORE PUSH1 0xE0 DUP5 ADD MLOAD PUSH1 0xE0 DUP5 ADD MSTORE PUSH2 0x100 DUP1 DUP6 ADD MLOAD ISZERO ISZERO SWAP1 DUP5 ADD MSTORE PUSH2 0x120 DUP1 DUP6 ADD MLOAD ISZERO ISZERO SWAP1 DUP5 ADD MSTORE PUSH2 0x140 DUP1 DUP6 ADD MLOAD SWAP1 PUSH2 0x11D3 DUP3 PUSH2 0x1F29 JUMP JUMPDEST DUP5 ADD MSTORE PUSH2 0x160 DUP1 DUP6 ADD MLOAD SWAP1 DUP5 DUP4 SUB SWAP1 DUP6 ADD MSTORE PUSH2 0x1E58 JUMP JUMPDEST SWAP2 PUSH2 0x180 DUP1 DUP3 ADD MLOAD SWAP1 DUP4 ADD MSTORE PUSH2 0x1A0 DUP1 SWAP2 ADD MLOAD SWAP2 ADD MSTORE SWAP7 ADD SWAP3 ADD SWAP7 ADD SWAP6 SWAP3 SWAP2 SWAP1 SWAP3 PUSH2 0x111A JUMP JUMPDEST PUSH2 0x121C DUP4 SWAP5 SWAP3 SWAP4 PUSH2 0x1EC4 JUMP JUMPDEST SWAP2 SWAP1 SLOAD SWAP1 PUSH1 0x3 SWAP1 PUSH1 0x1 DUP1 PUSH1 0xA0 SHL SUB DUP4 DUP6 DUP5 SHL SHR AND PUSH1 0x0 MSTORE PUSH1 0x7 SWAP1 DUP2 PUSH1 0x20 MSTORE PUSH1 0x40 PUSH1 0x0 KECCAK256 SWAP2 DUP3 SLOAD SWAP1 PUSH2 0x124C DUP3 PUSH2 0x21C5 JUMP JUMPDEST SWAP4 PUSH2 0x125A PUSH1 0x40 MLOAD SWAP6 DUP7 PUSH2 0x1FF5 JUMP JUMPDEST DUP3 DUP6 MSTORE PUSH1 0x20 DUP6 ADD SWAP1 PUSH1 0x0 MSTORE PUSH1 0x20 PUSH1 0x0 KECCAK256 SWAP2 PUSH1 0x0 SWAP2 JUMPDEST DUP5 DUP4 LT PUSH2 0x13C3 JUMPI POP POP POP POP POP PUSH1 0x0 SWAP1 JUMPDEST DUP3 MLOAD DUP3 LT ISZERO PUSH2 0x13AB JUMPI DUP6 PUSH2 0x1293 DUP4 DUP6 PUSH2 0x21DD JUMP JUMPDEST MLOAD DUP1 DUP8 DUP8 DUP3 MLOAD PUSH1 0x20 DUP5 ADD MLOAD PUSH1 0x40 DUP6 ADD MLOAD PUSH1 0x60 DUP7 ADD MLOAD PUSH1 0x80 DUP8 ADD MLOAD SWAP1 PUSH1 0xA0 DUP9 ADD MLOAD SWAP3 PUSH1 0xC0 DUP10 ADD MLOAD SWAP5 PUSH1 0xE0 DUP11 ADD MLOAD ISZERO ISZERO SWAP7 PUSH2 0x100 DUP12 ADD MLOAD ISZERO ISZERO SWAP9 PUSH2 0x120 DUP13 ADD MLOAD SWAP11 PUSH2 0x12DB DUP13 PUSH2 0x1F29 JUMP JUMPDEST PUSH2 0x140 DUP14 ADD MLOAD SWAP13 PUSH2 0x160 ADD MLOAD SWAP14 PUSH2 0x180 ADD MLOAD SWAP15 PUSH1 0x40 MLOAD DUP1 PUSH1 0x80 MSTORE PUSH2 0x12FE SWAP1 PUSH2 0x1FBC JUMP JUMPDEST PUSH1 0x1 PUSH1 0xA0 SHL PUSH1 0x1 SWAP1 SUB SWAP3 SHL SHR AND PUSH1 0x80 MLOAD MSTORE PUSH1 0x80 MLOAD PUSH1 0x20 ADD MSTORE PUSH1 0x80 MLOAD PUSH1 0x40 ADD MSTORE PUSH1 0x80 MLOAD PUSH1 0x60 ADD MSTORE PUSH1 0x80 MLOAD PUSH1 0x80 ADD MSTORE PUSH1 0x80 MLOAD PUSH1 0xA0 ADD MSTORE PUSH1 0x80 MLOAD PUSH1 0xC0 ADD MSTORE PUSH1 0x80 MLOAD PUSH1 0xE0 ADD MSTORE PUSH1 0x80 MLOAD PUSH2 0x100 ADD MSTORE PUSH1 0x80 MLOAD PUSH2 0x120 ADD MSTORE PUSH2 0x1359 DUP2 PUSH2 0x1F29 JUMP JUMPDEST PUSH1 0x80 MLOAD PUSH2 0x140 ADD MSTORE PUSH1 0x80 MLOAD PUSH2 0x160 ADD MSTORE PUSH1 0x80 MLOAD PUSH2 0x180 ADD MSTORE PUSH1 0x80 MLOAD PUSH2 0x1A0 ADD MSTORE PUSH1 0x80 MLOAD PUSH2 0x1386 DUP3 DUP10 PUSH2 0x21DD JUMP JUMPDEST MSTORE PUSH2 0x1391 DUP2 DUP9 PUSH2 0x21DD JUMP JUMPDEST POP PUSH2 0x139B SWAP1 PUSH2 0x21B6 JUMP JUMPDEST SWAP1 PUSH2 0x13A5 SWAP1 PUSH2 0x21B6 JUMP JUMPDEST SWAP1 PUSH2 0x127F JUMP JUMPDEST SWAP6 SWAP8 SWAP4 POP POP POP POP PUSH2 0x13BC SWAP2 POP PUSH2 0x21B6 JUMP JUMPDEST SWAP2 SWAP1 PUSH2 0x10ED JUMP JUMPDEST PUSH1 0xB PUSH1 0x20 PUSH1 0x1 SWAP3 PUSH1 0x40 MLOAD PUSH2 0x13D6 DUP2 PUSH2 0x1F9F JUMP JUMPDEST PUSH2 0x13DF DUP9 PUSH2 0x2017 JUMP JUMPDEST DUP2 MSTORE PUSH2 0x13EC DUP6 DUP10 ADD PUSH2 0x2017 JUMP JUMPDEST DUP4 DUP3 ADD MSTORE PUSH1 0x2 DUP9 ADD SLOAD PUSH1 0x40 DUP3 ADD MSTORE DUP12 DUP9 ADD SLOAD PUSH1 0x60 DUP3 ADD MSTORE PUSH1 0x4 DUP9 ADD SLOAD PUSH1 0x80 DUP3 ADD MSTORE PUSH1 0x5 DUP9 ADD SLOAD PUSH1 0xA0 DUP3 ADD MSTORE PUSH1 0x6 DUP9 ADD SLOAD PUSH1 0xC0 DUP3 ADD MSTORE PUSH2 0x145E DUP7 DUP10 ADD SLOAD PUSH1 0xFF DUP1 DUP3 AND ISZERO ISZERO PUSH1 0xE0 DUP6 ADD MSTORE PUSH1 0x8 SWAP2 DUP2 DUP2 DUP5 SHR AND ISZERO ISZERO PUSH2 0x100 DUP7 ADD MSTORE PUSH1 0x10 SHR AND PUSH2 0x1451 DUP2 PUSH2 0x1F29 JUMP JUMPDEST PUSH2 0x120 DUP5 ADD MSTORE DUP10 ADD PUSH2 0x2017 JUMP JUMPDEST PUSH2 0x140 DUP3 ADD MSTORE PUSH1 0x9 DUP9 ADD SLOAD PUSH2 0x160 DUP3 ADD MSTORE PUSH1 0xA DUP9 ADD SLOAD PUSH2 0x180 DUP3 ADD MSTORE DUP2 MSTORE ADD SWAP5 ADD SWAP3 ADD SWAP2 SWAP3 PUSH2 0x126F JUMP JUMPDEST PUSH1 0x20 SWAP1 PUSH1 0x40 MLOAD PUSH2 0x1497 DUP2 PUSH2 0x1FBC JUMP JUMPDEST PUSH1 0x0 DUP2 MSTORE PUSH1 0x60 DUP4 SWAP1 DUP1 DUP3 DUP5 ADD MSTORE DUP1 PUSH1 0x40 DUP5 ADD MSTORE PUSH1 0x0 DUP2 DUP5 ADD MSTORE PUSH1 0x0 PUSH1 0x80 DUP5 ADD MSTORE PUSH1 0x0 PUSH1 0xA0 DUP5 ADD MSTORE PUSH1 0x0 PUSH1 0xC0 DUP5 ADD MSTORE PUSH1 0x0 PUSH1 0xE0 DUP5 ADD MSTORE PUSH1 0x0 PUSH2 0x100 DUP5 ADD MSTORE PUSH1 0x0 PUSH2 0x120 DUP5 ADD MSTORE PUSH1 0x0 PUSH2 0x140 DUP5 ADD MSTORE PUSH2 0x160 DUP4 ADD MSTORE PUSH1 0x0 PUSH2 0x180 DUP4 ADD MSTORE PUSH1 0x0 PUSH2 0x1A0 DUP4 ADD MSTORE DUP3 DUP8 ADD ADD MSTORE ADD PUSH2 0x10DD JUMP JUMPDEST SWAP2 PUSH2 0x1539 PUSH2 0x153F SWAP2 PUSH2 0x1516 DUP6 PUSH2 0x1EC4 JUMP JUMPDEST PUSH1 0x1 DUP1 PUSH1 0xA0 SHL SUB SWAP2 SLOAD SWAP1 PUSH1 0x3 SHL SHR AND PUSH1 0x0 MSTORE PUSH1 0x7 PUSH1 0x20 MSTORE PUSH1 0x40 PUSH1 0x0 KECCAK256 SLOAD SWAP1 PUSH2 0x219C JUMP JUMPDEST SWAP3 PUSH2 0x21B6 JUMP JUMPDEST PUSH2 0x10AB JUMP JUMPDEST CALLVALUE PUSH2 0x420 JUMPI PUSH1 0x40 CALLDATASIZE PUSH1 0x3 NOT ADD SLT PUSH2 0x420 JUMPI PUSH2 0x155D PUSH2 0x1E98 JUMP JUMPDEST PUSH1 0x1 PUSH1 0x1 PUSH1 0xA0 SHL SUB AND PUSH1 0x0 SWAP1 DUP2 MSTORE PUSH1 0x7 PUSH1 0x20 MSTORE PUSH1 0x40 SWAP1 KECCAK256 DUP1 SLOAD PUSH1 0x24 CALLDATALOAD SWAP1 DUP2 LT ISZERO PUSH2 0x420 JUMPI PUSH2 0x158A SWAP2 PUSH2 0x1F49 JUMP JUMPDEST POP PUSH2 0x1594 DUP2 PUSH2 0x2017 JUMP JUMPDEST PUSH2 0x15A0 PUSH1 0x1 DUP4 ADD PUSH2 0x2017 JUMP JUMPDEST SWAP2 PUSH1 0x2 DUP2 ADD SLOAD PUSH1 0x3 DUP3 ADD SLOAD SWAP1 PUSH1 0x4 DUP4 ADD SLOAD SWAP1 PUSH1 0x5 DUP5 ADD SLOAD PUSH1 0x6 DUP6 ADD SLOAD PUSH1 0x7 DUP7 ADD SLOAD SWAP1 DUP2 PUSH1 0x10 SHR PUSH1 0xFF AND SWAP3 PUSH1 0x8 DUP9 ADD PUSH2 0x15D7 SWAP1 PUSH2 0x2017 JUMP JUMPDEST SWAP6 PUSH1 0x9 DUP10 ADD SLOAD SWAP9 PUSH1 0xA ADD SLOAD SWAP8 PUSH1 0x40 MLOAD SWAP12 DUP13 SWAP12 DUP13 PUSH2 0x1A0 DUP1 SWAP2 MSTORE DUP14 ADD PUSH2 0x15FB SWAP2 PUSH2 0x1E58 JUMP JUMPDEST DUP13 DUP2 SUB PUSH1 0x20 DUP15 ADD MSTORE PUSH2 0x160C SWAP2 PUSH2 0x1E58 JUMP JUMPDEST SWAP7 PUSH1 0x40 DUP13 ADD MSTORE PUSH1 0x60 DUP12 ADD MSTORE PUSH1 0x80 DUP11 ADD MSTORE PUSH1 0xA0 DUP10 ADD MSTORE PUSH1 0xC0 DUP9 ADD MSTORE PUSH1 0xFF DUP2 AND ISZERO ISZERO PUSH1 0xE0 DUP9 ADD MSTORE PUSH1 0x8 SHR PUSH1 0xFF AND ISZERO ISZERO PUSH2 0x100 DUP8 ADD MSTORE PUSH2 0x1648 DUP2 PUSH2 0x1F29 JUMP JUMPDEST PUSH2 0x120 DUP7 ADD MSTORE DUP5 DUP2 SUB PUSH2 0x140 DUP7 ADD MSTORE PUSH2 0x1660 SWAP2 PUSH2 0x1E58 JUMP JUMPDEST SWAP2 PUSH2 0x160 DUP5 ADD MSTORE PUSH2 0x180 DUP4 ADD MSTORE SUB SWAP1 RETURN JUMPDEST CALLVALUE PUSH2 0x420 JUMPI PUSH1 0x40 CALLDATASIZE PUSH1 0x3 NOT ADD SLT PUSH2 0x420 JUMPI PUSH2 0x1697 PUSH2 0x168D PUSH2 0x1E98 JUMP JUMPDEST PUSH1 0x24 CALLDATALOAD SWAP1 CALLER PUSH2 0x20E9 JUMP JUMPDEST PUSH1 0x20 PUSH1 0x40 MLOAD PUSH1 0x1 DUP2 MSTORE RETURN JUMPDEST CALLVALUE PUSH2 0x420 JUMPI PUSH1 0x0 CALLDATASIZE PUSH1 0x3 NOT ADD SLT PUSH2 0x420 JUMPI PUSH1 0x40 MLOAD PUSH1 0x0 PUSH1 0x4 SLOAD PUSH2 0x16C4 DUP2 PUSH2 0x1F65 JUMP JUMPDEST DUP1 DUP5 MSTORE SWAP1 PUSH1 0x1 SWAP1 DUP2 DUP2 AND SWAP1 DUP2 ISZERO PUSH2 0x1761 JUMPI POP PUSH1 0x1 EQ PUSH2 0x1706 JUMPI JUMPDEST PUSH2 0x1702 DUP5 PUSH2 0x16EE DUP2 DUP7 SUB DUP3 PUSH2 0x1FF5 JUMP JUMPDEST PUSH1 0x40 MLOAD SWAP2 DUP3 SWAP2 PUSH1 0x20 DUP4 MSTORE PUSH1 0x20 DUP4 ADD SWAP1 PUSH2 0x1E58 JUMP JUMPDEST SUB SWAP1 RETURN JUMPDEST PUSH1 0x4 PUSH1 0x0 SWAP1 DUP2 MSTORE SWAP3 POP PUSH32 0x8A35ACFBC15FF81A39AE7D344FD709F28E8600B4AA8C65C6B64BFE7FE36BD19B JUMPDEST DUP3 DUP5 LT PUSH2 0x1749 JUMPI POP POP POP DUP2 ADD PUSH1 0x20 ADD PUSH2 0x16EE DUP3 PUSH2 0x16DE JUMP JUMPDEST DUP1 SLOAD PUSH1 0x20 DUP6 DUP8 ADD DUP2 ADD SWAP2 SWAP1 SWAP2 MSTORE SWAP1 SWAP4 ADD SWAP3 DUP2 ADD PUSH2 0x1731 JUMP JUMPDEST PUSH1 0xFF NOT AND PUSH1 0x20 DUP1 DUP8 ADD SWAP2 SWAP1 SWAP2 MSTORE SWAP3 ISZERO ISZERO PUSH1 0x5 SHL DUP6 ADD SWAP1 SWAP3 ADD SWAP3 POP PUSH2 0x16EE SWAP2 POP DUP4 SWAP1 POP PUSH2 0x16DE JUMP JUMPDEST CALLVALUE PUSH2 0x420 JUMPI PUSH1 0x20 CALLDATASIZE PUSH1 0x3 NOT ADD SLT PUSH2 0x420 JUMPI PUSH1 0x1 PUSH1 0x1 PUSH1 0xA0 SHL SUB PUSH2 0x17A9 PUSH2 0x1E98 JUMP JUMPDEST AND PUSH1 0x0 MSTORE PUSH1 0x8 PUSH1 0x20 MSTORE PUSH1 0x20 PUSH1 0x40 PUSH1 0x0 KECCAK256 SLOAD PUSH1 0x40 MLOAD SWAP1 DUP2 MSTORE RETURN JUMPDEST CALLVALUE PUSH2 0x420 JUMPI PUSH1 0x0 CALLDATASIZE PUSH1 0x3 NOT ADD SLT PUSH2 0x420 JUMPI PUSH1 0x5 SLOAD PUSH1 0x40 MLOAD PUSH1 0x1 PUSH1 0x1 PUSH1 0xA0 SHL SUB SWAP1 SWAP2 AND DUP2 MSTORE PUSH1 0x20 SWAP1 RETURN JUMPDEST CALLVALUE PUSH2 0x420 JUMPI PUSH1 0x0 CALLDATASIZE PUSH1 0x3 NOT ADD SLT PUSH2 0x420 JUMPI PUSH2 0x1804 PUSH2 0x20BD JUMP JUMPDEST PUSH1 0x5 DUP1 SLOAD PUSH1 0x1 PUSH1 0x1 PUSH1 0xA0 SHL SUB NOT DUP2 AND SWAP1 SWAP2 SSTORE PUSH1 0x0 SWAP1 PUSH1 0x1 PUSH1 0x1 PUSH1 0xA0 SHL SUB AND PUSH32 0x8BE0079C531659141344CD1FD0A4F28419497F9722A3DAAFE3B4186F6B6457E0 DUP3 DUP1 LOG3 STOP JUMPDEST CALLVALUE PUSH2 0x420 JUMPI PUSH1 0x20 CALLDATASIZE PUSH1 0x3 NOT ADD SLT PUSH2 0x420 JUMPI PUSH1 0x1 PUSH1 0x1 PUSH1 0xA0 SHL SUB PUSH2 0x1869 PUSH2 0x1E98 JUMP JUMPDEST AND PUSH1 0x0 MSTORE PUSH1 0x0 PUSH1 0x20 MSTORE PUSH1 0x20 PUSH1 0x40 PUSH1 0x0 KECCAK256 SLOAD PUSH1 0x40 MLOAD SWAP1 DUP2 MSTORE RETURN JUMPDEST CALLVALUE PUSH2 0x420 JUMPI PUSH1 0x20 DUP1 PUSH1 0x3 NOT CALLDATASIZE ADD SLT PUSH2 0x420 JUMPI PUSH1 0x1 PUSH1 0x1 PUSH1 0xA0 SHL SUB PUSH2 0x18A4 PUSH2 0x1E98 JUMP JUMPDEST AND PUSH1 0x0 MSTORE PUSH1 0x9 DUP2 MSTORE PUSH1 0x40 PUSH1 0x0 KECCAK256 PUSH1 0x40 MLOAD SWAP1 DUP2 DUP4 DUP3 SLOAD SWAP2 DUP3 DUP2 MSTORE ADD SWAP1 DUP2 SWAP3 PUSH1 0x0 MSTORE DUP5 PUSH1 0x0 KECCAK256 SWAP1 PUSH1 0x0 JUMPDEST DUP7 DUP3 DUP3 LT PUSH2 0x1922 JUMPI DUP7 DUP7 PUSH2 0x18E2 DUP3 DUP9 SUB DUP4 PUSH2 0x1FF5 JUMP JUMPDEST PUSH1 0x40 MLOAD SWAP3 DUP4 SWAP3 DUP2 DUP5 ADD SWAP1 DUP3 DUP6 MSTORE MLOAD DUP1 SWAP2 MSTORE PUSH1 0x40 DUP5 ADD SWAP3 SWAP2 PUSH1 0x0 JUMPDEST DUP3 DUP2 LT PUSH2 0x190B JUMPI POP POP POP POP SUB SWAP1 RETURN JUMPDEST DUP4 MLOAD DUP6 MSTORE DUP7 SWAP6 POP SWAP4 DUP2 ADD SWAP4 SWAP3 DUP2 ADD SWAP3 PUSH1 0x1 ADD PUSH2 0x18FC JUMP JUMPDEST DUP4 SLOAD DUP6 MSTORE SWAP1 SWAP4 ADD SWAP3 PUSH1 0x1 SWAP3 DUP4 ADD SWAP3 ADD PUSH2 0x18CC JUMP JUMPDEST CALLVALUE PUSH2 0x420 JUMPI PUSH1 0x0 CALLDATASIZE PUSH1 0x3 NOT ADD SLT PUSH2 0x420 JUMPI PUSH1 0x20 PUSH1 0x40 MLOAD PUSH9 0x56BC75E2D63100000 DUP2 MSTORE RETURN JUMPDEST CALLVALUE PUSH2 0x420 JUMPI PUSH1 0x0 CALLDATASIZE PUSH1 0x3 NOT ADD SLT PUSH2 0x420 JUMPI PUSH1 0x20 PUSH1 0x40 MLOAD PUSH1 0xA DUP2 MSTORE RETURN JUMPDEST CALLVALUE PUSH2 0x420 JUMPI PUSH1 0x20 DUP1 PUSH1 0x3 NOT CALLDATASIZE ADD SLT PUSH2 0x420 JUMPI PUSH1 0x1 PUSH1 0x1 PUSH1 0xA0 SHL SUB PUSH2 0x1998 PUSH2 0x1E98 JUMP JUMPDEST AND PUSH1 0x0 MSTORE PUSH1 0x7 SWAP1 DUP2 DUP2 MSTORE PUSH1 0x40 PUSH1 0x0 KECCAK256 DUP1 SLOAD PUSH2 0x19B2 DUP2 PUSH2 0x21C5 JUMP JUMPDEST SWAP4 PUSH2 0x19C0 PUSH1 0x40 MLOAD SWAP6 DUP7 PUSH2 0x1FF5 JUMP JUMPDEST DUP2 DUP6 MSTORE PUSH1 0x0 SWAP3 DUP4 MSTORE DUP4 DUP4 KECCAK256 DUP5 DUP7 ADD SWAP4 SWAP2 DUP5 JUMPDEST DUP5 DUP5 LT PUSH2 0x1AE0 JUMPI PUSH1 0x40 DUP1 MLOAD DUP9 DUP2 MSTORE DUP10 MLOAD DUP2 DUP11 ADD DUP2 SWAP1 MSTORE PUSH1 0x0 SWAP3 PUSH1 0x5 DUP3 SWAP1 SHL DUP4 ADD DUP2 ADD SWAP2 DUP11 SWAP2 DUP13 SWAP1 DUP6 ADD JUMPDEST DUP3 DUP8 LT PUSH2 0x1A09 JUMPI DUP6 DUP6 SUB DUP7 RETURN JUMPDEST SWAP1 SWAP2 SWAP3 SWAP4 DUP3 DUP1 PUSH1 0x1 SWAP3 PUSH1 0x3F NOT DUP10 DUP3 SUB ADD DUP6 MSTORE DUP8 MLOAD SWAP1 PUSH2 0x1ABA PUSH2 0x1A47 PUSH2 0x1A37 DUP5 MLOAD PUSH2 0x1A0 DUP1 DUP7 MSTORE DUP6 ADD SWAP1 PUSH2 0x1E58 JUMP JUMPDEST DUP6 DUP6 ADD MLOAD DUP5 DUP3 SUB DUP8 DUP7 ADD MSTORE PUSH2 0x1E58 JUMP JUMPDEST PUSH1 0x40 DUP5 ADD MLOAD PUSH1 0x40 DUP5 ADD MSTORE PUSH1 0x60 DUP1 DUP6 ADD MLOAD SWAP1 DUP5 ADD MSTORE PUSH1 0x80 DUP1 DUP6 ADD MLOAD SWAP1 DUP5 ADD MSTORE PUSH1 0xA0 DUP1 DUP6 ADD MLOAD SWAP1 DUP5 ADD MSTORE PUSH1 0xC0 DUP1 DUP6 ADD MLOAD SWAP1 DUP5 ADD MSTORE PUSH1 0xE0 DUP5 ADD MLOAD ISZERO ISZERO PUSH1 0xE0 DUP5 ADD MSTORE PUSH2 0x100 DUP1 DUP6 ADD MLOAD ISZERO ISZERO SWAP1 DUP5 ADD MSTORE PUSH2 0x120 DUP1 DUP6 ADD MLOAD SWAP1 PUSH2 0x1AA3 DUP3 PUSH2 0x1F29 JUMP JUMPDEST DUP5 ADD MSTORE PUSH2 0x140 DUP1 DUP6 ADD MLOAD SWAP1 DUP5 DUP4 SUB SWAP1 DUP6 ADD MSTORE PUSH2 0x1E58 JUMP JUMPDEST SWAP2 PUSH2 0x160 DUP1 DUP3 ADD MLOAD SWAP1 DUP4 ADD MSTORE PUSH2 0x180 DUP1 SWAP2 ADD MLOAD SWAP2 ADD MSTORE SWAP7 ADD SWAP3 ADD SWAP7 ADD SWAP6 SWAP3 SWAP2 SWAP1 SWAP3 PUSH2 0x19FC JUMP JUMPDEST PUSH1 0xB DUP8 PUSH1 0x1 SWAP3 PUSH1 0x40 SWAP11 SWAP10 SWAP11 MLOAD PUSH2 0x1AF5 DUP2 PUSH2 0x1F9F JUMP JUMPDEST PUSH2 0x1AFE DUP8 PUSH2 0x2017 JUMP JUMPDEST DUP2 MSTORE PUSH2 0x1B0B DUP6 DUP9 ADD PUSH2 0x2017 JUMP JUMPDEST DUP4 DUP3 ADD MSTORE PUSH1 0x2 DUP8 ADD SLOAD PUSH1 0x40 DUP3 ADD MSTORE PUSH1 0x3 DUP8 ADD SLOAD PUSH1 0x60 DUP3 ADD MSTORE PUSH1 0x4 DUP8 ADD SLOAD PUSH1 0x80 DUP3 ADD MSTORE PUSH1 0x5 DUP8 ADD SLOAD PUSH1 0xA0 DUP3 ADD MSTORE PUSH1 0x6 DUP8 ADD SLOAD PUSH1 0xC0 DUP3 ADD MSTORE PUSH2 0x1B7E DUP7 DUP9 ADD SLOAD PUSH1 0xFF DUP1 DUP3 AND ISZERO ISZERO PUSH1 0xE0 DUP6 ADD MSTORE PUSH1 0x8 SWAP2 DUP2 DUP2 DUP5 SHR AND ISZERO ISZERO PUSH2 0x100 DUP7 ADD MSTORE PUSH1 0x10 SHR AND PUSH2 0x1B71 DUP2 PUSH2 0x1F29 JUMP JUMPDEST PUSH2 0x120 DUP5 ADD MSTORE DUP9 ADD PUSH2 0x2017 JUMP JUMPDEST PUSH2 0x140 DUP3 ADD MSTORE PUSH1 0x9 DUP8 ADD SLOAD PUSH2 0x160 DUP3 ADD MSTORE PUSH1 0xA DUP8 ADD SLOAD PUSH2 0x180 DUP3 ADD MSTORE DUP2 MSTORE ADD SWAP4 ADD SWAP4 ADD SWAP3 SWAP2 SWAP7 SWAP6 SWAP7 PUSH2 0x19D2 JUMP JUMPDEST CALLVALUE PUSH2 0x420 JUMPI PUSH1 0x0 CALLDATASIZE PUSH1 0x3 NOT ADD SLT PUSH2 0x420 JUMPI PUSH1 0x20 PUSH1 0x40 MLOAD PUSH1 0x12 DUP2 MSTORE RETURN JUMPDEST CALLVALUE PUSH2 0x420 JUMPI PUSH1 0x40 CALLDATASIZE PUSH1 0x3 NOT ADD SLT PUSH2 0x420 JUMPI PUSH2 0x1BE0 PUSH2 0x1E98 JUMP JUMPDEST PUSH1 0x1 PUSH1 0x1 PUSH1 0xA0 SHL SUB AND PUSH1 0x0 SWAP1 DUP2 MSTORE PUSH1 0x9 PUSH1 0x20 MSTORE PUSH1 0x40 SWAP1 KECCAK256 DUP1 SLOAD PUSH1 0x24 CALLDATALOAD SWAP2 SWAP1 DUP3 LT ISZERO PUSH2 0x420 JUMPI PUSH1 0x20 SWAP2 PUSH2 0x1C11 SWAP2 PUSH2 0x1F11 JUMP JUMPDEST SWAP1 SLOAD PUSH1 0x40 MLOAD SWAP2 PUSH1 0x3 SHL SHR DUP2 MSTORE RETURN JUMPDEST CALLVALUE PUSH2 0x420 JUMPI PUSH1 0x60 CALLDATASIZE PUSH1 0x3 NOT ADD SLT PUSH2 0x420 JUMPI PUSH2 0x1C38 PUSH2 0x1E98 JUMP JUMPDEST PUSH2 0x1C40 PUSH2 0x1EAE JUMP JUMPDEST PUSH1 0x1 PUSH1 0x1 PUSH1 0xA0 SHL SUB DUP3 AND PUSH1 0x0 DUP2 DUP2 MSTORE PUSH1 0x1 PUSH1 0x20 SWAP1 DUP2 MSTORE PUSH1 0x40 DUP1 DUP4 KECCAK256 CALLER DUP5 MSTORE SWAP1 SWAP2 MSTORE SWAP1 KECCAK256 SLOAD SWAP3 PUSH1 0x44 CALLDATALOAD SWAP3 SWAP2 PUSH1 0x0 NOT DUP6 LT PUSH2 0x1C7F JUMPI JUMPDEST POP PUSH2 0x1697 SWAP4 POP PUSH2 0x20E9 JUMP JUMPDEST DUP4 DUP6 LT PUSH2 0x1CEB JUMPI DUP1 ISZERO PUSH2 0x1CD2 JUMPI CALLER ISZERO PUSH2 0x1CB9 JUMPI PUSH2 0x1697 SWAP5 DUP5 SWAP2 PUSH1 0x0 MSTORE PUSH1 0x1 PUSH1 0x20 MSTORE PUSH1 0x40 PUSH1 0x0 KECCAK256 CALLER PUSH1 0x0 MSTORE PUSH1 0x20 MSTORE SUB PUSH1 0x40 PUSH1 0x0 KECCAK256 SSTORE DUP5 PUSH2 0x1C74 JUMP JUMPDEST PUSH1 0x40 MLOAD PUSH4 0x4A1406B1 PUSH1 0xE1 SHL DUP2 MSTORE PUSH1 0x0 PUSH1 0x4 DUP3 ADD MSTORE PUSH1 0x24 SWAP1 REVERT JUMPDEST PUSH1 0x40 MLOAD PUSH4 0xE602DF05 PUSH1 0xE0 SHL DUP2 MSTORE PUSH1 0x0 PUSH1 0x4 DUP3 ADD MSTORE PUSH1 0x24 SWAP1 REVERT JUMPDEST PUSH1 0x40 MLOAD PUSH4 0x7DC7A0D9 PUSH1 0xE1 SHL DUP2 MSTORE CALLER PUSH1 0x4 DUP3 ADD MSTORE PUSH1 0x24 DUP2 ADD DUP7 SWAP1 MSTORE PUSH1 0x44 DUP2 ADD DUP6 SWAP1 MSTORE PUSH1 0x64 SWAP1 REVERT JUMPDEST CALLVALUE PUSH2 0x420 JUMPI PUSH1 0x0 CALLDATASIZE PUSH1 0x3 NOT ADD SLT PUSH2 0x420 JUMPI PUSH1 0x20 PUSH1 0x2 SLOAD PUSH1 0x40 MLOAD SWAP1 DUP2 MSTORE RETURN JUMPDEST CALLVALUE PUSH2 0x420 JUMPI PUSH1 0x40 CALLDATASIZE PUSH1 0x3 NOT ADD SLT PUSH2 0x420 JUMPI PUSH2 0x1D48 PUSH2 0x1E98 JUMP JUMPDEST PUSH1 0x24 CALLDATALOAD SWAP1 CALLER ISZERO PUSH2 0x1CD2 JUMPI PUSH1 0x1 PUSH1 0x1 PUSH1 0xA0 SHL SUB AND SWAP1 DUP2 ISZERO PUSH2 0x1CB9 JUMPI CALLER PUSH1 0x0 MSTORE PUSH1 0x1 PUSH1 0x20 MSTORE PUSH1 0x40 PUSH1 0x0 KECCAK256 DUP3 PUSH1 0x0 MSTORE PUSH1 0x20 MSTORE DUP1 PUSH1 0x40 PUSH1 0x0 KECCAK256 SSTORE PUSH1 0x40 MLOAD SWAP1 DUP2 MSTORE PUSH32 0x8C5BE1E5EBEC7D5BD14F71427D1E84F3DD0314C0F7B2291E5B200AC8C7C3B925 PUSH1 0x20 CALLER SWAP3 LOG3 PUSH1 0x20 PUSH1 0x40 MLOAD PUSH1 0x1 DUP2 MSTORE RETURN JUMPDEST CALLVALUE PUSH2 0x420 JUMPI PUSH1 0x0 CALLDATASIZE PUSH1 0x3 NOT ADD SLT PUSH2 0x420 JUMPI PUSH1 0x0 PUSH1 0x3 SLOAD PUSH2 0x1DD4 DUP2 PUSH2 0x1F65 JUMP JUMPDEST DUP1 DUP5 MSTORE SWAP1 PUSH1 0x1 SWAP1 DUP2 DUP2 AND SWAP1 DUP2 ISZERO PUSH2 0x1761 JUMPI POP PUSH1 0x1 EQ PUSH2 0x1DFD JUMPI PUSH2 0x1702 DUP5 PUSH2 0x16EE DUP2 DUP7 SUB DUP3 PUSH2 0x1FF5 JUMP JUMPDEST PUSH1 0x3 PUSH1 0x0 SWAP1 DUP2 MSTORE SWAP3 POP PUSH32 0xC2575A0E9E593C00F959F8C92F12DB2869C3395A3B0502D05E2516446F71F85B JUMPDEST DUP3 DUP5 LT PUSH2 0x1E40 JUMPI POP POP POP DUP2 ADD PUSH1 0x20 ADD PUSH2 0x16EE DUP3 PUSH2 0x16DE JUMP JUMPDEST DUP1 SLOAD PUSH1 0x20 DUP6 DUP8 ADD DUP2 ADD SWAP2 SWAP1 SWAP2 MSTORE SWAP1 SWAP4 ADD SWAP3 DUP2 ADD PUSH2 0x1E28 JUMP JUMPDEST SWAP2 SWAP1 DUP3 MLOAD SWAP3 DUP4 DUP3 MSTORE PUSH1 0x0 JUMPDEST DUP5 DUP2 LT PUSH2 0x1E84 JUMPI POP POP DUP3 PUSH1 0x0 PUSH1 0x20 DUP1 SWAP5 SWAP6 DUP5 ADD ADD MSTORE PUSH1 0x1F DUP1 NOT SWAP2 ADD AND ADD ADD SWAP1 JUMP JUMPDEST PUSH1 0x20 DUP2 DUP4 ADD DUP2 ADD MLOAD DUP5 DUP4 ADD DUP3 ADD MSTORE ADD PUSH2 0x1E63 JUMP JUMPDEST PUSH1 0x4 CALLDATALOAD SWAP1 PUSH1 0x1 PUSH1 0x1 PUSH1 0xA0 SHL SUB DUP3 AND DUP3 SUB PUSH2 0x420 JUMPI JUMP JUMPDEST PUSH1 0x24 CALLDATALOAD SWAP1 PUSH1 0x1 PUSH1 0x1 PUSH1 0xA0 SHL SUB DUP3 AND DUP3 SUB PUSH2 0x420 JUMPI JUMP JUMPDEST PUSH1 0xB SLOAD DUP2 LT ISZERO PUSH2 0x1EFB JUMPI PUSH1 0xB PUSH1 0x0 MSTORE PUSH32 0x175B7A638427703F0DBE7BB9BBF987A2551717B34E79F33B5B1008D1FA01DB9 ADD SWAP1 PUSH1 0x0 SWAP1 JUMP JUMPDEST PUSH4 0x4E487B71 PUSH1 0xE0 SHL PUSH1 0x0 MSTORE PUSH1 0x32 PUSH1 0x4 MSTORE PUSH1 0x24 PUSH1 0x0 REVERT JUMPDEST DUP1 SLOAD DUP3 LT ISZERO PUSH2 0x1EFB JUMPI PUSH1 0x0 MSTORE PUSH1 0x20 PUSH1 0x0 KECCAK256 ADD SWAP1 PUSH1 0x0 SWAP1 JUMP JUMPDEST PUSH1 0x5 GT ISZERO PUSH2 0x1F33 JUMPI JUMP JUMPDEST PUSH4 0x4E487B71 PUSH1 0xE0 SHL PUSH1 0x0 MSTORE PUSH1 0x21 PUSH1 0x4 MSTORE PUSH1 0x24 PUSH1 0x0 REVERT JUMPDEST DUP1 SLOAD DUP3 LT ISZERO PUSH2 0x1EFB JUMPI PUSH1 0x0 MSTORE PUSH1 0xB PUSH1 0x20 PUSH1 0x0 KECCAK256 SWAP2 MUL ADD SWAP1 PUSH1 0x0 SWAP1 JUMP JUMPDEST SWAP1 PUSH1 0x1 DUP3 DUP2 SHR SWAP3 AND DUP1 ISZERO PUSH2 0x1F95 JUMPI JUMPDEST PUSH1 0x20 DUP4 LT EQ PUSH2 0x1F7F JUMPI JUMP JUMPDEST PUSH4 0x4E487B71 PUSH1 0xE0 SHL PUSH1 0x0 MSTORE PUSH1 0x22 PUSH1 0x4 MSTORE PUSH1 0x24 PUSH1 0x0 REVERT JUMPDEST SWAP2 PUSH1 0x7F AND SWAP2 PUSH2 0x1F74 JUMP JUMPDEST PUSH2 0x1A0 DUP2 ADD SWAP1 DUP2 LT PUSH8 0xFFFFFFFFFFFFFFFF DUP3 GT OR PUSH2 0xDA2 JUMPI PUSH1 0x40 MSTORE JUMP JUMPDEST PUSH2 0x1C0 DUP2 ADD SWAP1 DUP2 LT PUSH8 0xFFFFFFFFFFFFFFFF DUP3 GT OR PUSH2 0xDA2 JUMPI PUSH1 0x40 MSTORE JUMP JUMPDEST PUSH1 0x40 DUP2 ADD SWAP1 DUP2 LT PUSH8 0xFFFFFFFFFFFFFFFF DUP3 GT OR PUSH2 0xDA2 JUMPI PUSH1 0x40 MSTORE JUMP JUMPDEST SWAP1 PUSH1 0x1F DUP1 NOT SWAP2 ADD AND DUP2 ADD SWAP1 DUP2 LT PUSH8 0xFFFFFFFFFFFFFFFF DUP3 GT OR PUSH2 0xDA2 JUMPI PUSH1 0x40 MSTORE JUMP JUMPDEST SWAP1 PUSH1 0x40 MLOAD SWAP2 DUP3 PUSH1 0x0 DUP3 SLOAD SWAP3 PUSH2 0x202B DUP5 PUSH2 0x1F65 JUMP JUMPDEST SWAP1 DUP2 DUP5 MSTORE PUSH1 0x1 SWAP5 DUP6 DUP2 AND SWAP1 DUP2 PUSH1 0x0 EQ PUSH2 0x209A JUMPI POP PUSH1 0x1 EQ PUSH2 0x2057 JUMPI JUMPDEST POP POP PUSH2 0x2055 SWAP3 POP SUB DUP4 PUSH2 0x1FF5 JUMP JUMPDEST JUMP JUMPDEST SWAP1 SWAP4 SWAP2 POP PUSH1 0x0 MSTORE PUSH1 0x20 SWAP1 DUP2 PUSH1 0x0 KECCAK256 SWAP4 PUSH1 0x0 SWAP2 JUMPDEST DUP2 DUP4 LT PUSH2 0x2082 JUMPI POP POP PUSH2 0x2055 SWAP4 POP DUP3 ADD ADD CODESIZE DUP1 PUSH2 0x2047 JUMP JUMPDEST DUP6 SLOAD DUP9 DUP5 ADD DUP6 ADD MSTORE SWAP5 DUP6 ADD SWAP5 DUP8 SWAP5 POP SWAP2 DUP4 ADD SWAP2 PUSH2 0x206A JUMP JUMPDEST SWAP2 POP POP PUSH2 0x2055 SWAP5 POP PUSH1 0x20 SWAP3 POP PUSH1 0xFF NOT AND DUP3 DUP5 ADD MSTORE ISZERO ISZERO PUSH1 0x5 SHL DUP3 ADD ADD CODESIZE DUP1 PUSH2 0x2047 JUMP JUMPDEST PUSH1 0x5 SLOAD PUSH1 0x1 PUSH1 0x1 PUSH1 0xA0 SHL SUB AND CALLER SUB PUSH2 0x20D1 JUMPI JUMP JUMPDEST PUSH1 0x40 MLOAD PUSH4 0x118CDAA7 PUSH1 0xE0 SHL DUP2 MSTORE CALLER PUSH1 0x4 DUP3 ADD MSTORE PUSH1 0x24 SWAP1 REVERT JUMPDEST SWAP2 PUSH1 0x1 PUSH1 0x1 PUSH1 0xA0 SHL SUB DUP1 DUP5 AND SWAP3 DUP4 ISZERO PUSH2 0x2183 JUMPI AND SWAP3 DUP4 ISZERO PUSH2 0x85C JUMPI PUSH1 0x0 SWAP1 DUP4 DUP3 MSTORE DUP2 PUSH1 0x20 MSTORE PUSH1 0x40 DUP3 KECCAK256 SLOAD SWAP1 DUP4 DUP3 LT PUSH2 0x2151 JUMPI POP SWAP2 PUSH1 0x40 DUP3 DUP3 PUSH1 0x0 DUP1 MLOAD PUSH1 0x20 PUSH2 0x247D DUP4 CODECOPY DUP2 MLOAD SWAP2 MSTORE SWAP6 DUP8 PUSH1 0x20 SWAP7 MSTORE DUP3 DUP7 MSTORE SUB DUP3 DUP3 KECCAK256 SSTORE DUP7 DUP2 MSTORE KECCAK256 DUP2 DUP2 SLOAD ADD SWAP1 SSTORE PUSH1 0x40 MLOAD SWAP1 DUP2 MSTORE LOG3 JUMP JUMPDEST PUSH1 0x40 MLOAD PUSH4 0x391434E3 PUSH1 0xE2 SHL DUP2 MSTORE PUSH1 0x1 PUSH1 0x1 PUSH1 0xA0 SHL SUB SWAP2 SWAP1 SWAP2 AND PUSH1 0x4 DUP3 ADD MSTORE PUSH1 0x24 DUP2 ADD SWAP2 SWAP1 SWAP2 MSTORE PUSH1 0x44 DUP2 ADD DUP4 SWAP1 MSTORE PUSH1 0x64 SWAP1 REVERT JUMPDEST PUSH1 0x40 MLOAD PUSH4 0x4B637E8F PUSH1 0xE1 SHL DUP2 MSTORE PUSH1 0x0 PUSH1 0x4 DUP3 ADD MSTORE PUSH1 0x24 SWAP1 REVERT JUMPDEST SWAP2 SWAP1 DUP3 ADD DUP1 SWAP3 GT PUSH2 0x846 JUMPI JUMP JUMPDEST SWAP2 SWAP1 DUP3 SUB SWAP2 DUP3 GT PUSH2 0x846 JUMPI JUMP JUMPDEST PUSH1 0x0 NOT DUP2 EQ PUSH2 0x846 JUMPI PUSH1 0x1 ADD SWAP1 JUMP JUMPDEST PUSH8 0xFFFFFFFFFFFFFFFF DUP2 GT PUSH2 0xDA2 JUMPI PUSH1 0x5 SHL PUSH1 0x20 ADD SWAP1 JUMP JUMPDEST DUP1 MLOAD DUP3 LT ISZERO PUSH2 0x1EFB JUMPI PUSH1 0x20 SWAP2 PUSH1 0x5 SHL ADD ADD SWAP1 JUMP JUMPDEST PUSH2 0x21FA DUP2 PUSH2 0x1F29 JUMP JUMPDEST DUP1 ISZERO PUSH2 0x22EB JUMPI PUSH2 0x2209 DUP2 PUSH2 0x1F29 JUMP JUMPDEST PUSH1 0x1 DUP2 EQ PUSH2 0x22BD JUMPI PUSH2 0x221A DUP2 PUSH2 0x1F29 JUMP JUMPDEST PUSH1 0x2 DUP2 EQ PUSH2 0x228F JUMPI DUP1 PUSH2 0x222E PUSH1 0x3 SWAP3 PUSH2 0x1F29 JUMP JUMPDEST EQ PUSH2 0x2260 JUMPI PUSH1 0x40 MLOAD PUSH2 0x223F DUP2 PUSH2 0x1FD9 JUMP JUMPDEST PUSH1 0x11 DUP2 MSTORE PUSH17 0x52756E6E696E67204368616C6C656E6765 PUSH1 0x78 SHL PUSH1 0x20 DUP3 ADD MSTORE SWAP1 JUMP JUMPDEST PUSH1 0x40 MLOAD PUSH2 0x226C DUP2 PUSH2 0x1FD9 JUMP JUMPDEST PUSH1 0x13 DUP2 MSTORE PUSH19 0x4461696C7920596F6761205072616374696365 PUSH1 0x68 SHL PUSH1 0x20 DUP3 ADD MSTORE SWAP1 JUMP JUMPDEST POP PUSH1 0x40 MLOAD PUSH2 0x229C DUP2 PUSH2 0x1FD9 JUMP JUMPDEST PUSH1 0x11 DUP2 MSTORE PUSH17 0x11DE5B48151C985A5B9A5B99C811DBD85B PUSH1 0x7A SHL PUSH1 0x20 DUP3 ADD MSTORE SWAP1 JUMP JUMPDEST POP PUSH1 0x40 MLOAD PUSH2 0x22CA DUP2 PUSH2 0x1FD9 JUMP JUMPDEST PUSH1 0x11 DUP2 MSTORE PUSH17 0x4D61737465722044534120536B696C6C73 PUSH1 0x78 SHL PUSH1 0x20 DUP3 ADD MSTORE SWAP1 JUMP JUMPDEST POP PUSH1 0x40 MLOAD PUSH2 0x22F8 DUP2 PUSH2 0x1FD9 JUMP JUMPDEST PUSH1 0x1C DUP2 MSTORE PUSH32 0x4C6576656C20557020596F757220436F64696E6720536B696C6C732100000000 PUSH1 0x20 DUP3 ADD MSTORE SWAP1 JUMP JUMPDEST PUSH2 0x232E DUP2 PUSH2 0x1F29 JUMP JUMPDEST DUP1 ISZERO PUSH2 0x2442 JUMPI PUSH2 0x233D DUP2 PUSH2 0x1F29 JUMP JUMPDEST PUSH1 0x1 DUP2 EQ PUSH2 0x2408 JUMPI PUSH2 0x234E DUP2 PUSH2 0x1F29 JUMP JUMPDEST PUSH1 0x2 DUP2 EQ PUSH2 0x23CE JUMPI DUP1 PUSH2 0x2362 PUSH1 0x3 SWAP3 PUSH2 0x1F29 JUMP JUMPDEST EQ PUSH2 0x2395 JUMPI PUSH1 0x40 MLOAD PUSH2 0x2373 DUP2 PUSH2 0x1FD9 JUMP JUMPDEST PUSH1 0x12 DUP2 MSTORE PUSH18 0x11185A5B1E481C9D5B9B9A5B99C819DBD85B PUSH1 0x72 SHL PUSH1 0x20 DUP3 ADD MSTORE SWAP1 JUMP JUMPDEST PUSH1 0x40 MLOAD PUSH2 0x23A1 DUP2 PUSH2 0x1FD9 JUMP JUMPDEST PUSH1 0x1B DUP2 MSTORE PUSH32 0x436F6D706C657465206461696C7920796F67612073657373696F6E0000000000 PUSH1 0x20 DUP3 ADD MSTORE SWAP1 JUMP JUMPDEST POP PUSH1 0x40 MLOAD PUSH2 0x23DB DUP2 PUSH2 0x1FD9 JUMP JUMPDEST PUSH1 0x19 DUP2 MSTORE PUSH32 0x4461696C792067796D20776F726B6F75742073657373696F6E00000000000000 PUSH1 0x20 DUP3 ADD MSTORE SWAP1 JUMP JUMPDEST POP PUSH1 0x40 MLOAD PUSH2 0x2415 DUP2 PUSH2 0x1FD9 JUMP JUMPDEST PUSH1 0x1D DUP2 MSTORE PUSH32 0x536F6C7665204C656574436F64652070726F626C656D73206461696C79000000 PUSH1 0x20 DUP3 ADD MSTORE SWAP1 JUMP JUMPDEST POP PUSH1 0x40 MLOAD PUSH2 0x244F DUP2 PUSH2 0x1FD9 JUMP JUMPDEST PUSH1 0x1F DUP2 MSTORE PUSH32 0x4D616B65206461696C792047697448756220636F6E747269627574696F6E7300 PUSH1 0x20 DUP3 ADD MSTORE SWAP1 JUMP INVALID 0xDD CALLCODE MSTORE 0xAD SHL 0xE2 0xC8 SWAP12 PUSH10 0xC2B068FC378DAA952BA7 CALL PUSH4 0xC4A11628 CREATE2 GAS 0x4D CREATE2 0x23 0xB3 0xEF LOG2 PUSH5 0x6970667358 0x22 SLT KECCAK256 SHR 0xD6 0xCC JUMP 0x2C 0xB3 0xA7 DUP15 BYTE SWAP6 0xB4 SHR SWAP2 0x2A DUP9 0xCC PUSH17 0xDD319AB6CECAC4A61CE35DC16C02656473 PUSH16 0x6C634300081400330000000000000000 "},"methodIdentifiers":{"BONUS_RATE()":"3909201e","ONBOARDING_TOKENS()":"4a9e7704","allowance(address,address)":"dd62ed3e","approve(address,uint256)":"095ea7b3","balanceOf(address)":"70a08231","checkInHabit(uint256,bool)":"f767c1f3","createHabit(uint8,uint256,uint256,uint256,string)":"d0396124","decimals()":"313ce567","getAllGoals()":"c75bc9b4","getUserGoals(address)":"35742c63","getUserNFTs(address)":"52de4ee5","hasOnboarded(address)":"ea91b888","hasUserOnboarded(address)":"907a8550","name()":"06fdde03","nftContract()":"d56d229d","onboard()":"d61d94ca","owner()":"8da5cb5b","renounceOwnership()":"715018a6","symbol()":"95d89b41","totalSupply()":"18160ddd","transfer(address,uint256)":"a9059cbb","transferFrom(address,address,uint256)":"23b872dd","transferOwnership(address)":"f2fde38b","userGoals(address,uint256)":"b6b3eedf","userNFTs(address,uint256)":"291c73c3","userStakes(address)":"8da7ad23"}}}}}