{
  "_format": "hh-sol-artifact-1",
  "contractName": "GoalForgeNFT",
  "sourceName": "contracts/GoalForgeNFT.sol",
  "abi": [
    {
      "inputs": [],
      "stateMutability": "nonpayable",
      "type": "constructor"
    },
    {
      "inputs": [
        {
          "internalType": "address",
          "name": "sender",
          "type": "address"
        },
        {
          "internalType": "uint256",
          "name": "tokenId",
          "type": "uint256"
        },
        {
          "internalType": "address",
          "name": "owner",
          "type": "address"
        }
      ],
      "name": "ERC721IncorrectOwner",
      "type": "error"
    },
    {
      "inputs": [
        {
          "internalType": "address",
          "name": "operator",
          "type": "address"
        },
        {
          "internalType": "uint256",
          "name": "tokenId",
          "type": "uint256"
        }
      ],
      "name": "ERC721InsufficientApproval",
      "type": "error"
    },
    {
      "inputs": [
        {
          "internalType": "address",
          "name": "approver",
          "type": "address"
        }
      ],
      "name": "ERC721InvalidApprover",
      "type": "error"
    },
    {
      "inputs": [
        {
          "internalType": "address",
          "name": "operator",
          "type": "address"
        }
      ],
      "name": "ERC721InvalidOperator",
      "type": "error"
    },
    {
      "inputs": [
        {
          "internalType": "address",
          "name": "owner",
          "type": "address"
        }
      ],
      "name": "ERC721InvalidOwner",
      "type": "error"
    },
    {
      "inputs": [
        {
          "internalType": "address",
          "name": "receiver",
          "type": "address"
        }
      ],
      "name": "ERC721InvalidReceiver",
      "type": "error"
    },
    {
      "inputs": [
        {
          "internalType": "address",
          "name": "sender",
          "type": "address"
        }
      ],
      "name": "ERC721InvalidSender",
      "type": "error"
    },
    {
      "inputs": [
        {
          "internalType": "uint256",
          "name": "tokenId",
          "type": "uint256"
        }
      ],
      "name": "ERC721NonexistentToken",
      "type": "error"
    },
    {
      "inputs": [
        {
          "internalType": "address",
          "name": "owner",
          "type": "address"
        }
      ],
      "name": "OwnableInvalidOwner",
      "type": "error"
    },
    {
      "inputs": [
        {
          "internalType": "address",
          "name": "account",
          "type": "address"
        }
      ],
      "name": "OwnableUnauthorizedAccount",
      "type": "error"
    },
    {
      "anonymous": false,
      "inputs": [
        {
          "indexed": true,
          "internalType": "address",
          "name": "owner",
          "type": "address"
        },
        {
          "indexed": true,
          "internalType": "address",
          "name": "approved",
          "type": "address"
        },
        {
          "indexed": true,
          "internalType": "uint256",
          "name": "tokenId",
          "type": "uint256"
        }
      ],
      "name": "Approval",
      "type": "event"
    },
    {
      "anonymous": false,
      "inputs": [
        {
          "indexed": true,
          "internalType": "address",
          "name": "owner",
          "type": "address"
        },
        {
          "indexed": true,
          "internalType": "address",
          "name": "operator",
          "type": "address"
        },
        {
          "indexed": false,
          "internalType": "bool",
          "name": "approved",
          "type": "bool"
        }
      ],
      "name": "ApprovalForAll",
      "type": "event"
    },
    {
      "anonymous": false,
      "inputs": [
        {
          "indexed": true,
          "internalType": "address",
          "name": "user",
          "type": "address"
        },
        {
          "indexed": false,
          "internalType": "uint256",
          "name": "tokenId",
          "type": "uint256"
        },
        {
          "indexed": false,
          "internalType": "enum IGoalForgeTypes.HabitType",
          "name": "habitType",
          "type": "uint8"
        }
      ],
      "name": "NFTMinted",
      "type": "event"
    },
    {
      "anonymous": false,
      "inputs": [
        {
          "indexed": true,
          "internalType": "address",
          "name": "previousOwner",
          "type": "address"
        },
        {
          "indexed": true,
          "internalType": "address",
          "name": "newOwner",
          "type": "address"
        }
      ],
      "name": "OwnershipTransferred",
      "type": "event"
    },
    {
      "anonymous": false,
      "inputs": [
        {
          "indexed": true,
          "internalType": "address",
          "name": "from",
          "type": "address"
        },
        {
          "indexed": true,
          "internalType": "address",
          "name": "to",
          "type": "address"
        },
        {
          "indexed": true,
          "internalType": "uint256",
          "name": "tokenId",
          "type": "uint256"
        }
      ],
      "name": "Transfer",
      "type": "event"
    },
    {
      "inputs": [
        {
          "internalType": "address",
          "name": "to",
          "type": "address"
        },
        {
          "internalType": "uint256",
          "name": "tokenId",
          "type": "uint256"
        }
      ],
      "name": "approve",
      "outputs": [],
      "stateMutability": "nonpayable",
      "type": "function"
    },
    {
      "inputs": [
        {
          "internalType": "address",
          "name": "owner",
          "type": "address"
        }
      ],
      "name": "balanceOf",
      "outputs": [
        {
          "internalType": "uint256",
          "name": "",
          "type": "uint256"
        }
      ],
      "stateMutability": "view",
      "type": "function"
    },
    {
      "inputs": [
        {
          "internalType": "uint256",
          "name": "tokenId",
          "type": "uint256"
        }
      ],
      "name": "getApproved",
      "outputs": [
        {
          "internalType": "address",
          "name": "",
          "type": "address"
        }
      ],
      "stateMutability": "view",
      "type": "function"
    },
    {
      "inputs": [
        {
          "internalType": "uint256",
          "name": "tokenId",
          "type": "uint256"
        }
      ],
      "name": "getTokenMetadata",
      "outputs": [
        {
          "components": [
            {
              "internalType": "enum IGoalForgeTypes.HabitType",
              "name": "habitType",
              "type": "uint8"
            },
            {
              "internalType": "uint256",
              "name": "mintedAt",
              "type": "uint256"
            },
            {
              "internalType": "uint256",
              "name": "daysCompleted",
              "type": "uint256"
            }
          ],
          "internalType": "struct GoalForgeNFT.NFTMetadata",
          "name": "",
          "type": "tuple"
        }
      ],
      "stateMutability": "view",
      "type": "function"
    },
    {
      "inputs": [
        {
          "internalType": "address",
          "name": "owner",
          "type": "address"
        },
        {
          "internalType": "address",
          "name": "operator",
          "type": "address"
        }
      ],
      "name": "isApprovedForAll",
      "outputs": [
        {
          "internalType": "bool",
          "name": "",
          "type": "bool"
        }
      ],
      "stateMutability": "view",
      "type": "function"
    },
    {
      "inputs": [
        {
          "internalType": "address",
          "name": "to",
          "type": "address"
        },
        {
          "internalType": "enum IGoalForgeTypes.HabitType",
          "name": "habitType",
          "type": "uint8"
        },
        {
          "internalType": "uint256",
          "name": "daysCompleted",
          "type": "uint256"
        }
      ],
      "name": "mint",
      "outputs": [
        {
          "internalType": "uint256",
          "name": "",
          "type": "uint256"
        }
      ],
      "stateMutability": "nonpayable",
      "type": "function"
    },
    {
      "inputs": [],
      "name": "name",
      "outputs": [
        {
          "internalType": "string",
          "name": "",
          "type": "string"
        }
      ],
      "stateMutability": "view",
      "type": "function"
    },
    {
      "inputs": [],
      "name": "owner",
      "outputs": [
        {
          "internalType": "address",
          "name": "",
          "type": "address"
        }
      ],
      "stateMutability": "view",
      "type": "function"
    },
    {
      "inputs": [
        {
          "internalType": "uint256",
          "name": "tokenId",
          "type": "uint256"
        }
      ],
      "name": "ownerOf",
      "outputs": [
        {
          "internalType": "address",
          "name": "",
          "type": "address"
        }
      ],
      "stateMutability": "view",
      "type": "function"
    },
    {
      "inputs": [],
      "name": "renounceOwnership",
      "outputs": [],
      "stateMutability": "nonpayable",
      "type": "function"
    },
    {
      "inputs": [
        {
          "internalType": "address",
          "name": "from",
          "type": "address"
        },
        {
          "internalType": "address",
          "name": "to",
          "type": "address"
        },
        {
          "internalType": "uint256",
          "name": "tokenId",
          "type": "uint256"
        }
      ],
      "name": "safeTransferFrom",
      "outputs": [],
      "stateMutability": "nonpayable",
      "type": "function"
    },
    {
      "inputs": [
        {
          "internalType": "address",
          "name": "from",
          "type": "address"
        },
        {
          "internalType": "address",
          "name": "to",
          "type": "address"
        },
        {
          "internalType": "uint256",
          "name": "tokenId",
          "type": "uint256"
        },
        {
          "internalType": "bytes",
          "name": "data",
          "type": "bytes"
        }
      ],
      "name": "safeTransferFrom",
      "outputs": [],
      "stateMutability": "nonpayable",
      "type": "function"
    },
    {
      "inputs": [
        {
          "internalType": "address",
          "name": "operator",
          "type": "address"
        },
        {
          "internalType": "bool",
          "name": "approved",
          "type": "bool"
        }
      ],
      "name": "setApprovalForAll",
      "outputs": [],
      "stateMutability": "nonpayable",
      "type": "function"
    },
    {
      "inputs": [
        {
          "internalType": "bytes4",
          "name": "interfaceId",
          "type": "bytes4"
        }
      ],
      "name": "supportsInterface",
      "outputs": [
        {
          "internalType": "bool",
          "name": "",
          "type": "bool"
        }
      ],
      "stateMutability": "view",
      "type": "function"
    },
    {
      "inputs": [],
      "name": "symbol",
      "outputs": [
        {
          "internalType": "string",
          "name": "",
          "type": "string"
        }
      ],
      "stateMutability": "view",
      "type": "function"
    },
    {
      "inputs": [
        {
          "internalType": "uint256",
          "name": "",
          "type": "uint256"
        }
      ],
      "name": "tokenMetadata",
      "outputs": [
        {
          "internalType": "enum IGoalForgeTypes.HabitType",
          "name": "habitType",
          "type": "uint8"
        },
        {
          "internalType": "uint256",
          "name": "mintedAt",
          "type": "uint256"
        },
        {
          "internalType": "uint256",
          "name": "daysCompleted",
          "type": "uint256"
        }
      ],
      "stateMutability": "view",
      "type": "function"
    },
    {
      "inputs": [
        {
          "internalType": "uint256",
          "name": "tokenId",
          "type": "uint256"
        }
      ],
      "name": "tokenURI",
      "outputs": [
        {
          "internalType": "string",
          "name": "",
          "type": "string"
        }
      ],
      "stateMutability": "view",
      "type": "function"
    },
    {
      "inputs": [
        {
          "internalType": "address",
          "name": "from",
          "type": "address"
        },
        {
          "internalType": "address",
          "name": "to",
          "type": "address"
        },
        {
          "internalType": "uint256",
          "name": "tokenId",
          "type": "uint256"
        }
      ],
      "name": "transferFrom",
      "outputs": [],
      "stateMutability": "nonpayable",
      "type": "function"
    },
    {
      "inputs": [
        {
          "internalType": "address",
          "name": "newOwner",
          "type": "address"
        }
      ],
      "name": "transferOwnership",
      "outputs": [],
      "stateMutability": "nonpayable",
      "type": "function"
    }
  ],
  "bytecode": "0x6080346200039c5760406001600160401b038282018181118482101762000386578252600d83526020926c11dbd85b119bdc99d948139195609a1b8482015282519183830183811082821117620003865784526004928381526311d3919560e21b8682015282519082821162000371576000968754926001958685811c9516801562000366575b8386101462000353578190601f9586811162000300575b5083908683116001146200029c578b9262000290575b5050600019600383901b1c191690861b1788555b81519384116200027d5784548581811c9116801562000272575b828210146200025f57908184869594931162000208575b5080928411600114620001a05750879262000194575b5050600019600383901b1c191690821b1790555b33156200017f575060068054336001600160a01b03198216811790925591519290916001600160a01b0316907f8be0079c531659141344cd1fd0a4f28419497f9722a3daafe3b4186f6b6457e09080a3610fa89081620003a28239f35b826024925191631e4fbdf760e01b8352820152fd5b0151905038806200010e565b9190859450601f198416858a52838a20938a905b828210620001ee5750508411620001d4575b505050811b01905562000122565b015160001960f88460031b161c19169055388080620001c6565b8484015186558897909501949384019390810190620001b4565b90919293508589528189208480870160051c82019284881062000255575b9187968992969594930160051c01915b82811062000246575050620000f8565b8b815587965088910162000236565b9250819262000226565b634e487b7160e01b895260228752602489fd5b90607f1690620000e1565b634e487b7160e01b885260418652602488fd5b015190503880620000b3565b8b8052848c208994509190601f1984168d5b87828210620002e95750508411620002cf575b505050811b018855620000c7565b015160001960f88460031b161c19169055388080620002c1565b8385015186558c97909501949384019301620002ae565b9091508a8052838b208680850160051c82019286861062000349575b918a91869594930160051c01915b8281106200033a5750506200009d565b8d81558594508a91016200032a565b925081926200031c565b634e487b7160e01b8a526022885260248afd5b94607f169462000086565b604185634e487b7160e01b6000525260246000fd5b634e487b7160e01b600052604160045260246000fd5b600080fdfe6080604081815260048036101561001557600080fd5b600092833560e01c90816301ffc9a714610a4a5750806306fdde031461097f578063081812fc14610944578063095ea7b31461086857806323b872dd1461085057806342842e0e146108275780634ed387b21461064657806360316801146105c15780636352211e146105905780636914db601461054957806370a08231146104f4578063715018a6146104975780638da5cb5b1461046e57806395d89b4114610355578063a22cb465146102b4578063b88d4fde1461022b578063c87b56dd146101d8578063e985e9c5146101865763f2fde38b146100f457600080fd5b346101825760203660031901126101825761010d610af6565b90610116610c0b565b6001600160a01b0391821692831561016c575050600654826bffffffffffffffffffffffff60a01b821617600655167f8be0079c531659141344cd1fd0a4f28419497f9722a3daafe3b4186f6b6457e08380a380f35b51631e4fbdf760e01b8152908101849052602490fd5b8280fd5b5050346101d457806003193601126101d45760ff816020936101a6610af6565b6101ae610b11565b6001600160a01b0391821683526005875283832091168252855220549151911615158152f35b5080fd5b509190346101d45760203660031901126101d4576101f96102279335610f2b565b5081815161020681610bb1565b5280519161021383610bb1565b825251918291602083526020830190610ab6565b0390f35b50903461018257608036600319011261018257610246610af6565b61024e610b11565b846064359467ffffffffffffffff86116101d457366023870112156101d4578501359461028661027d87610bef565b95519586610bcd565b85855236602487830101116101d457856102b196602460209301838801378501015260443591610dd6565b80f35b5090346101825780600319360112610182576102ce610af6565b9060243591821515809303610351576001600160a01b031692831561033c5750338452600560205280842083855260205280842060ff1981541660ff8416179055519081527f17307eab39ab6107e8899845ad3d59bd9653f200f220920489ca2b5937696c3160203392a380f35b836024925191630b61174360e31b8352820152fd5b8480fd5b50913461046b578060031936011261046b578151918160019283549384811c91818616958615610461575b602096878510811461044e578899509688969785829a5291826000146104275750506001146103cc575b50505061022792916103bd910385610bcd565b51928284938452830190610ab6565b91908693508083527fb10e2d527612073b26eecdfd717e6a320cf44b4afac2b0732d9fcbe2b7fa0cf65b82841061040f57505050820101816103bd6102276103aa565b8054848a0186015288955087949093019281016103f6565b60ff19168782015293151560051b860190930193508492506103bd915061022790506103aa565b634e487b7160e01b835260228a52602483fd5b92607f1692610380565b80fd5b5050346101d457816003193601126101d45760065490516001600160a01b039091168152602090f35b833461046b578060031936011261046b576104b0610c0b565b600680546001600160a01b0319811690915581906001600160a01b03167f8be0079c531659141344cd1fd0a4f28419497f9722a3daafe3b4186f6b6457e08280a380f35b50913461046b57602036600319011261046b576001600160a01b03610517610af6565b169283156105345750806020938392526003845220549051908152f35b91516322718ad960e21b815291820152602490fd5b503461018257602036600319011261018257606092829135815260076020522060ff81541691600260018301549201549161058682518095610b5c565b6020840152820152f35b50913461046b57602036600319011261046b57506105b060209235610f2b565b90516001600160a01b039091168152f35b5034610182576020366003190112610182578282916060948380516105e581610b7f565b82815282602082015201523581526007602052209080519161060683610b7f565b61061460ff82541684610f66565b6002600182015491602085019283520154908284019182526106398351809551610b5c565b5160208401525190820152f35b50903461018257606036600319011261018257610661610af6565b9260243560058110156101d457610676610c0b565b600854936000199283861461081557600186016008556001600160a01b039687169384156107fe57868252868560209960028b52888520541680151593846107cc575b5081855260038b528885208054600101905582855260028b5288852080546001600160a01b031916831790557fddf252ad1be2c89b69c2b068fc378daa952ba7f163c4a11628f55a4df523b3ef8580a46107b65784519161071983610b7f565b6107238484610f66565b8783019042825286840192604435845288815260078a5287812094519160058310156107a35750507f5716925f2a990bb51e5354134a606547c86dc787be1a2729eef575fd0c2bea1e949287949260029260ff801986541691161784555160018401555191015561079c82519187835288830190610b5c565ba251908152f35b634e487b7160e01b825260219052602490fd5b84516339e3563760e11b81529182015260249150fd5b600084815260046020526040902080546001600160a01b031916905581865260038c52898620908154019055386106b9565b8551633250574960e11b8152808401839052602490fd5b6011602492634e487b7160e01b835252fd5b5050346101d4576102b19061083b36610b27565b9192519261084884610bb1565b858452610dd6565b833461046b576102b161086236610b27565b91610c37565b509034610182578060031936011261018257610882610af6565b9160243561088f81610f2b565b33151580610931575b80610908575b6108f2576001600160a01b039485169482918691167f8c5be1e5ebec7d5bd14f71427d1e84f3dd0314c0f7b2291e5b200ac8c7c3b9258880a48452602052822080546001600160a01b031916909117905580f35b835163a9fbf51f60e01b81523381850152602490fd5b506001600160a01b03811686526005602090815284872033885290528386205460ff161561089e565b506001600160a01b038116331415610898565b50346101825760203660031901126101825791826020933561096581610f2b565b50825283528190205490516001600160a01b039091168152f35b50913461046b578060031936011261046b5781519181825492600184811c91818616958615610a40575b602096878510811461044e578899509688969785829a5291826000146104275750506001146109e55750505061022792916103bd910385610bcd565b91908693508280527f290decd9548b62a8d60345a988386fc84ba6bc95484008f6362f93160ef3e5635b828410610a2857505050820101816103bd6102276103aa565b8054848a018601528895508794909301928101610a0f565b92607f16926109a9565b92505034610182576020366003190112610182573563ffffffff60e01b811680910361018257602092506380ac58cd60e01b8114908115610aa5575b8115610a94575b5015158152f35b6301ffc9a760e01b14905038610a8d565b635b5e139f60e01b81149150610a86565b919082519283825260005b848110610ae2575050826000602080949584010152601f8019910116010190565b602081830181015184830182015201610ac1565b600435906001600160a01b0382168203610b0c57565b600080fd5b602435906001600160a01b0382168203610b0c57565b6060906003190112610b0c576001600160a01b03906004358281168103610b0c57916024359081168103610b0c579060443590565b906005821015610b695752565b634e487b7160e01b600052602160045260246000fd5b6060810190811067ffffffffffffffff821117610b9b57604052565b634e487b7160e01b600052604160045260246000fd5b6020810190811067ffffffffffffffff821117610b9b57604052565b90601f8019910116810190811067ffffffffffffffff821117610b9b57604052565b67ffffffffffffffff8111610b9b57601f01601f191660200190565b6006546001600160a01b03163303610c1f57565b60405163118cdaa760e01b8152336004820152602490fd5b6001600160a01b039182169290918315610dbd57600092828452826020956002875260409684888820541696879133151580610d27575b509060027fddf252ad1be2c89b69c2b068fc378daa952ba7f163c4a11628f55a4df523b3ef9284610cf4575b858352600381528b8320805460010190558683525289812080546001600160a01b0319168517905580a41692838303610cd35750505050565b6064945051926364283d7b60e01b8452600484015260248301526044820152fd5b600087815260046020526040902080546001600160a01b0319169055848352600381528b83208054600019019055610c9a565b91939450915080610d7c575b15610d4357859291879138610c6e565b878688610d60576024915190637e27328960e01b82526004820152fd5b604491519063177e802f60e01b82523360048301526024820152fd5b503387148015610da1575b80610d335750858252600481523385898420541614610d33565b5086825260058152878220338352815260ff8883205416610d87565b604051633250574960e11b815260006004820152602490fd5b929092610de4838583610c37565b833b610df1575b50505050565b604051630a85bd0160e11b8082523360048301526001600160a01b0392831660248301526044820194909452608060648201529493169260209290918590610e3d906084830190610ab6565b039483816000978189895af1869181610ee7575b50610eb2575050503d600014610ea9573d610e6b81610bef565b90610e796040519283610bcd565b81528093823d92013e5b82519283610ea457604051633250574960e11b815260048101849052602490fd5b019050fd5b60609250610e83565b919450915063ffffffff60e01b1603610ecf575038808080610deb565b60249060405190633250574960e11b82526004820152fd5b9091508481813d8311610f24575b610eff8183610bcd565b81010312610f2057516001600160e01b031981168103610f20579038610e51565b8680fd5b503d610ef5565b6000818152600260205260409020546001600160a01b0316908115610f4e575090565b60249060405190637e27328960e01b82526004820152fd5b6005821015610b69575256fea2646970667358221220f428de593d1e6b76d58031c179d2e30c21443eb095f1a94c3cc5b8870e1eaa5d64736f6c63430008140033",
  "linkReferences": {},
  "deployedLinkReferences": {}
}